:100000000C9497000C94DF0D0C94100E0C94410E80
:100010000C94C6000C94C6000C94C6000C94C60048
:100020000C94C6000C94C6000C94C6000C94C60038
:100030000C94C6000C94C6000C94C6000C94C60028
:100040000C94C6000C94C6000C94720E0C94C6005E
:100050000C9478110C94AE110C94C6000C94C6004C
:100060000C94C6000C94C6000C94C6000C94C600F8
:100070000C94C6000C94C6000C94C6000C94C600E8
:100080000C94C6000C94C6000C94C6006F0F720F3F
:10009000650F690F890F890F760F7A0F800F840F14
:1000A000000000010200090A000000000403080724
:1000B0000000000000000000000000000000000040
:1000C0000102040810204080010204081020408032
:1000D0000102040810204080010204081020408022
:1000E00002020202020202020404040404040404E0
:1000F00003030303030303030101010101010101E0
:100100000000200023002600290000002200250016
:1001100028002B0000002100240027002A0063642F
:10012000696E6F70737578585B00F301E2111124EA
:100130001FBECFEFD0E4DEBFCDBF13E0A0E0B1E043
:10014000EEE9F6E300E00BBF02C007900D92AA357E
:10015000B107D9F724E0AAE5B3E001C01D92AC399C
:10016000B207E1F711E0CEE2D1E000E006C022974D
:100170000109FE010BBF0E941615CA32D10780E0AB
:100180000807A9F70E9426120C944D1B0C9400003E
:1001900026E040E052EC61E070E08FEF93E00E94D7
:1001A000161124E643E06BE58BE993E00E943B05E2
:1001B00066E071E08BE993E00E94F60467E171E08C
:1001C0008FEF93E00C9480121F93CF93DF93182F3F
:1001D000EB0161E00E948A0F61E0812F0E94C30F52
:1001E000BE01882777FD8095982F0E94EB0E60E076
:1001F000812FDF91CF911F910C94C30FCF92EF927B
:10020000FF920F931F93CF93DF93CDB7DEB72B975A
:100210000FB6F894DEBF0FBECDBF24E630E040E459
:100220006AE08BE593E00E94A108843009F046C0A3
:1002300090915B03963409F041C090915C039C342B
:10024000E9F590915D039835C9F590915E039F3370
:10025000A9F520915A03211103C061E371E081C027
:1002600086E591E09A83898380919D038B838091B9
:100270009E038C8380919F038D838091A0038E8346
:100280008091A1038F838091A20388878091A3032B
:1002900089878091A4038A878091A5038B87C12CCD
:1002A00082E3E82EF12C08EB1BE0AE014F5F5F4FBD
:1002B00064E08BE593E00E942F0D57C09CEF980FF0
:1002C000933008F044C090915B03943509F041C02D
:1002D00090915C039F34E9F590915D039A33C9F5E1
:1002E000EEE5F3E010E093E09E1B219130ED320F3C
:1002F0003A3000F5312F330F132F110F110F130F59
:100300001053120F292F2E0F281778F3112391F075
:1003100010935A0365E371E08FEF93E00E9473122C
:100320004AE050E0612F8FEF93E00E94F81261EBFA
:1003300071E017C06BE573E08FEF93E00E947312DA
:1003400062E672E08FEF93E00E9473120EC0882382
:1003500061F069E371E08FEF93E00E9473126BE547
:1003600073E08FEF93E00E9480128BE993E00E948C
:100370003402882329F110E08091B003181758F453
:10038000E12FF0E0EE54FC4F60818FEF93E00E948C
:1003900075121F5FF1CF8091AC03882369F040E0B4
:1003A0006CE473E08BE993E00E94A70766E471E0D8
:1003B0008FEF93E00E9473128FEF93E00E947C1204
:1003C00065E070E08FE00E94E4002B960FB6F89491
:1003D000DEBF0FBECDBFDF91CF911F910F91FF9078
:1003E000EF90CF90089586E591E090939C038093E1
:1003F0009B0384E080939D0382E080939E0380931F
:100400009F0381E08093B1031092A1038FE1809359
:10041000A2031092A3030895089581E08093A80396
:100420008091A6039091A703DC01ED91FC910484D7
:10043000F585E02D09951092A8030895FC01F89424
:100440008CB581878DB582878CB5837F8CBD8CB54B
:100450008F7D8CBD8CB58C7F8CBD8DB58E7F8DBD19
:1004600060E082810C94C30FF8942091B103233093
:1004700021F42091AD0321110FC02091B10323304D
:1004800011F4789407C0DC01ED91FC910288F389A6
:10049000E02D099580E00895DC01ED91FC91048840
:1004A000F589E02D61E0099581E00895CF93DF9310
:1004B000EC0161E08A810E94C30F89858CBD8A8529
:1004C0008DBD8091A803811101C07894DF91CF91F7
:1004D00008958EBD00000DB407FEFDCF8EB50895C2
:1004E000CF93DF931F92CDB7DEB7DC01ED91FC9186
:1004F0000480F581E02D698309956981882359F08D
:100500008091AF03861711F06F3F29F49091AB03F0
:1005100081E0911101C080E00F90DF91CF910895AB
:100520002F923F924F925F927F928F929F92AF92C3
:10053000BF92CF92DF92EF92FF920F931F93CF93D0
:10054000DF93EC01962E5A01722E802E10E0CE2CF5
:10055000D12CE12CF12CE881F9810190F081E02D82
:1005600001E0272DA501692DCE0109950E94BC0E41
:100570001B012C010E94BC0E6219730984099509A4
:100580006C157D058E059F0540F4692DCE010E94F6
:100590007002882379F381E004C01F5F8116D8F6CA
:1005A00080E0DF91CF911F910F91FF90EF90DF904E
:1005B000CF90BF90AF909F908F907F905F904F9023
:1005C0003F902F900895EF92FF921F93CF93DF9368
:1005D0001F92CDB7DEB77C01DC01ED91FC91008C60
:1005E000F18DE02D698309956981862F8F770E94AF
:1005F000690280E00E946902182FD701ED91FC91F9
:10060000028CF38DE02DC7010995812F0F90DF91AA
:10061000CF911F91FF90EF9008950F931F93CF9369
:10062000DF93EC0167E00E94E302082F68E0CE014F
:100630000E94E302182F69E0CE010E94E302402FDE
:1006400050E060E070E0BA0155274427480F511D83
:10065000611D711D812F90E0982F8827480F591F29
:10066000611D711DCB01BA010E94FD1320E034E22F
:1006700044E752E40E948B140E94D113DF91CF9182
:100680001F910F9108950F931F93CF93DF9300D085
:10069000CDB7DEB78C01DC01ED91FC91008CF18DC2
:1006A000E02D4A83698309956981862F80680E94BD
:1006B00069024A81842F0E946902D801ED91FC9160
:1006C000028CF38DE02DC8010F900F90DF91CF9138
:1006D0001F910F910994CF92DF92EF92FF921F9397
:1006E000CF93DF93EC016A017B011091B1031430C9
:1006F00039F4E881F9810488F589E02D63E00995F2
:10070000C701B6010E94FD1320E034E244E752E441
:100710000E9469130E94D1136B017C01AC01662712
:10072000772767E0CE010E94430377276F2D5E2D68
:100730004D2D68E0CE010E9443034C2D69E0CE01AF
:100740000E944303133041F4E881F9810488F5895C
:10075000E02D62E0CE010995E881F9810488F589F0
:10076000E02D612FCE01DF91CF911F91FF90EF908F
:10077000DF90CF9009941F93CF93DF93EC01162F56
:100780008091B103681709F461C0623009F440C078
:1007900070F4662309F444C0613009F057C061E089
:1007A000CE010E94E302482F437E44603FC0633085
:1007B000C1F0643009F04AC061E0CE010E94E3025A
:1007C000482F437E4C6061E0CE010E944303888540
:1007D000882381F1E881F9810688F789E02D61E0BD
:1007E00014C061E0CE010E94E302482F437E4061C5
:1007F00061E0CE010E94430388858823D9F0E88117
:10080000F9810688F789E02D60E0CE01099512C0D4
:1008100061E0CE010E94E302482F437E486006C09B
:1008200061E0CE010E94E302482F437E61E0CE01E9
:100830000E9443038091B103811106C067E2CE019B
:100840000E94E30287FFF6CF1093B103DF91CF91AF
:100850001F910895CF93DF93EC01603208F06FE1B0
:100860006F838885882311F066956F8361E1CE01DF
:100870000E94E302482F407E8F81482B61E1CE0128
:10088000DF91CF910C944303CF92DF92EF92FF92CE
:100890000F931F93CF93DF93EC01F62ED42EC52E2A
:1008A000122FE881F9810488F589E02D61E009952E
:1008B00067E2CE010E94E30287FFFACF40E065E2E3
:1008C000CE010E9443031E3308F01DE3E11004C073
:1008D000002319F000E401C000E8E881F981008CF0
:1008E000F18DE02DCE01099580E80E94690283E038
:1008F000810F0E9469028F2D0E9469028D810E94E2
:100900006902802F0E9469020D2DED2CFC2C8E2D8A
:10091000801B811730F4F70181917F010E946902E9
:10092000F6CFE881F981028CF38DE02DCE01099597
:10093000E881F9810488F589E02D64E0CE0109950C
:100940000E94BC0E6B017C018B810E94F90F892BE8
:1009500081F0E881F9810488F589E02D61E0CE011C
:10096000DF91CF911F910F91FF90EF90DF90CF908B
:1009700009940E94BC0E6C197D098E099F09683E7E
:1009800073408105910528F7DFCFCF93DF93EC010A
:100990001092B0031092AF031092AE031092AD0309
:1009A0001092AC031092AB031092AA031092A90309
:1009B00068E20E94E30282FF0AC06DE3CE010E945A
:1009C000E302482F44606DE3CE010E94430340E4FC
:1009D00065E2CE010E944303E881F9810488F5892C
:1009E000E02D63E0CE01DF91CF910994DF92EF9289
:1009F000FF920F931F93CF93DF93EC018B01E8815C
:100A0000F9810488F589E02D61E00995011511054A
:100A1000E1F0E881F981008CF18DE02DCE0109959E
:100A20008EEB0E9469027801D12CF70181917F0140
:100A30000E946902D394F0E1DF12F7CFE881F981D7
:100A4000028CF38DE02DCE0109956DE3CE010E945D
:100A5000E3028E7F91E0012B09F490E0482F492BAF
:100A60006DE3CE01DF91CF911F910F91FF90EF9039
:100A7000DF900C9443038F929F92AF92BF92DF92CC
:100A8000EF92FF920F931F93CF93DF93CDB7DEB713
:100A9000AE970FB6F894DEBF0FBECDBF7C01D42E4B
:100AA0008EE28E010F5F1F4FD801E82F1D92EA954D
:100AB000E9F791E0998334E03A8342E04B8393E095
:100AC0009D834E833F8340E4488735E039879A878A
:100AD00096E09B8793E39C8737E03D8798E09F876C
:100AE00099E0998B99E19B8B92E49C8B55E25D8B0D
:100AF0004E8B46E24F8B388F38E2398F30E13A8F98
:100B000039E23B8F3CED3C8F8D8F88E88E8F8FE2F2
:100B10008F8F8DE288A380E389A337E33BA330E97D
:100B20003CA338E33DA39EA39CE39FA39FE898A723
:100B30009DE399A792E19AA79FE69BA78CA78FEFC9
:100B40008DA76F3131F06B3231F0663531F489EDBC
:100B500005C08EE403C08CE601C084EE8E876F3141
:100B600041F06B3221F0663521F480E003C080E46F
:100B700001C080EC888B2AA361E0D70112968C918A
:100B80000E94C30F61E0F70182810E948A0F0E94D8
:100B900041080E94BC0E4B015C014AEA6FE2C701AA
:100BA0000E9443036FE2C7010E94E3028A3A59F0B0
:100BB0000E94BC0E681979098A099B096233710584
:100BC0008105910550F30E94BC0E4B015C0145E587
:100BD0006FE2C7010E9443036FE2C7010E94E30274
:100BE000853559F00E94BC0E681979098A099B095C
:100BF000623371058105910550F3B12CF801EB0DBD
:100C0000F11DEB0DF11D60816F3F31F04181C70196
:100C10000E944303B394F2CF60E070E0C7010E94EA
:100C2000F604D701ED91FC9111970084F185E02D38
:100C300018966C91C7010995D701ED91FC91048834
:100C4000F589E02D61E0C70109950E94BC0E4B01BA
:100C50005C0167E2C7010E94E30287FD0BC00E94AE
:100C6000BC0E681979098A099B09623371058105EF
:100C7000910578F30E94BC0E681979098A099B09CD
:100C8000623371058105910598F41092A80343E041
:100C900050E06DE072E0F70184810E94B00DF092A7
:100CA000A703E092A603D7011596DC9281E001C06C
:100CB00080E0AE960FB6F894DEBF0FBECDBFDF91D9
:100CC000CF911F910F91FF90EF90DF90BF90AF9069
:100CD0009F908F900895CF93DF93EC0161110DC029
:100CE00064E2CE010E94E30290E091958195910922
:100CF00095958795DF91CF91089541E063E20E9439
:100D0000430363E2CE010E94E30281FFFACFE8CF02
:100D1000CF93DF93EC018091B1038330A9F48091EC
:100D2000AD03811111C060E0CE010E946B06863ACE
:100D30009F4F54F4E881F9810488F589E02D61E042
:100D4000CE01099581E001C080E0DF91CF91089547
:100D5000FF920F931F93CF93DF93EC018091B10328
:100D6000833001F568E2CE010E94E30282FD28C0D3
:100D700019C08091B0038D3330F4E091B003F0E0FE
:100D8000EE54FC4F1082E881F981028CF38DE02D46
:100D9000CE010995E881F9810488F589E02D63E0A9
:100DA000CE01099560E0CE010E946B069093AA03E4
:100DB0008093A903DF91CF911F910F91FF90089528
:100DC000E881F9810488F589E02D61E0CE0109957B
:100DD000E881F981008CF18DE02DCE01099580E04C
:100DE0000E94690280E00E9469028093AD038091B5
:100DF000AD038334D0F48091AD038093AD0380E0E4
:100E00000E9469028093AE038E81811109C0909186
:100E1000AE038D81981721F08091AE038F3F39F496
:100E20008091AD03833018F017C082E4E6CF1092B2
:100E3000AD03E881F981028CF38DE02DCE01099597
:100E4000E881F9810288F389E02DCE01DF91CF910D
:100E50001F910F91FF9009948091AD03835080936F
:100E6000B00380E00E9469028093AF0380E00E949B
:100E70006902982F90789093AB03982F9074909379
:100E8000AC03E881F9810684F785E02D682FCE0157
:100E90000995F12C8091B003F81608F06ACF0F2D58
:100EA00010E080E00E946902F801EE54FC4F80835C
:100EB000F394F0CF4F925F926F927F929F92AF9296
:100EC000BF92EF920F931F93CF93DF93EC01162FF6
:100ED0005A01922E6DE30E94E302482F44606DE3B5
:100EE000CE010E9443030E94BC0E2B013C01CE01A7
:100EF0000E9488068823C1F0E881F9810088F18981
:100F0000E02DE12C292DA501612FCE010995DF915E
:100F1000CF911F910F91EF90BF90AF909F907F90D6
:100F20006F905F904F9008950E94BC0E64197509F0
:100F300086099709683E734081059105E8F6E881C6
:100F4000F9810480F581E02DCE010995D0CF4F9233
:100F50005F926F927F929F92AF92BF92CF92DF92F9
:100F6000EF92FF920F93CF93DF93EC015B01942EEE
:100F70001092AC03F090AF03C090A903D090AA03E5
:100F80006DE30E94E302482F44606DE3CE010E94AE
:100F900043030E94BC0E2B013C01CE010E94880637
:100FA000882311F1F092AF03E881F9810088F1897B
:100FB000E02DEE24E39400E0292DA5016F2DCE0154
:100FC0000995D092AA03C092A903DF91CF910F9106
:100FD000FF90EF90DF90CF90BF90AF909F907F9069
:100FE0006F905F904F9008950E94BC0E6419750930
:100FF00086099709683E73408105910598F6E88156
:10100000F9810480F581E02DCE010995C6CFCF93FB
:10101000DF93EC016887662311F04FE001C04AE1DD
:1010200063E1CE010E9443038885882341F061E19A
:10103000CE010E94E302482F4F71406602C04F81EB
:10104000406861E1CE01DF91CF910C9443031F937F
:10105000CF93DF93EC01162F662311F04DE501C00D
:1010600045E56AE5CE010E944303112311F04CE7E8
:1010700001C040E76CE5CE01DF91CF911F910C9448
:101080004303CF93CFB7F8948091EF03811127C02A
:10109000E4EEF0E08491E4ECF0E09491E82FF0E0ED
:1010A000EE0FFF1FEC5EFE4FA591B4918C9189234A
:1010B00021F461E084E00E94C30F61E084E00E94BB
:1010C0008A0F8CB580618CBD8CB580648CBD61E06D
:1010D00087E00E948A0F61E085E00E948A0F80917C
:1010E000EF038F5F8093EF03CFBFCF910895FC0193
:1010F000DB0186E591E09183808312968C911297B3
:10110000828313968C911397838314968C911497F2
:10111000848315968C911597858316968C911697D6
:10112000868317968C911797878318968C911897BA
:10113000808719968C91199781871A968C9182874E
:1011400008950F931F93CF93DF93EC01162F042F75
:10115000A90160E070E08FEF93E00E942D13202F33
:1011600030E0AE01612F8FEF93E00E943313182F10
:10117000C80FD11D188240E050E0BA018FEF93E014
:101180000E942D13812FDF91CF911F910F91089510
:101190004F925F926F927F928F929F92AF92BF9287
:1011A000CF92DF92EF92FF920F931F93CF93DF9333
:1011B000EC01162FC42E2901D02EFE2C0E94BC0E4D
:1011C0004B015C01612C712C0E94BC0E68197909DD
:1011D0008A099B09641575058605970570F5CC206D
:1011E00021F027E042E751E003C024E04AE751E064
:1011F000ED2C02E0612FCE010E949002882321F3A2
:101200008091B003863011F58091B2038634F1F4F9
:101210008091B3038C34D1F48091B4038835B1F458
:101220008091B5038F3391F48091B6038F3471F4BC
:101230008091B7038B3451F431C0FF2089F16FE7FF
:1012400071E08FEF93E00E9480122AC08091B0037A
:10125000873009F0B9CF8091B203863409F0B4CF5A
:101260008091B3038C3409F0AFCF8091B4038835FB
:1012700009F0AACF8091B5038F3309F0A5CF8091F3
:10128000B6038E3409F0A0CF8091B7038F3409F0F4
:101290009BCF8091B8038B3409F096CF81E001C0D9
:1012A00080E0DF91CF911F910F91FF90EF90DF9041
:1012B000CF90BF90AF909F908F907F906F905F90F6
:1012C0004F900895282F332727FD3095813414F04F
:1012D00027533109822F8295807F613414F0675340
:1012E00001C06053860F0895AF92BF92CF92DF92F4
:1012F000EF92FF920F931F93CF93DF938C01B62E43
:101300008BE0861710F080E044C060FDFCCF7801D0
:10131000C0E0D0E0A12CC62ED12CE2E0CE1AD1083C
:101320008C2FF70161917F0190ED960F9A3020F09C
:101330009FEB960F963038F780FF09C0CC15DD057E
:1013400034F4F701329780810E946209A80E219639
:10135000CB1530F3CB2DD0E098012C0F3D1FF901B8
:101360003197D901129760818C910E946209A194F2
:10137000A812C9CFF801618180810E946209282FDB
:1013800030E02B5F3F4F220F331FC217D30709F006
:10139000BACFDF91CF911F910F91FF90EF90DF9027
:1013A000CF90BF90AF9008957F928F929F92AF920F
:1013B000BF92CF92DF92EF92FF920F931F93CF9342
:1013C000DF93EC017B01742E3F932F932EE831E0E5
:1013D0003F932F93FF926F930E9422155C012196F9
:1013E0000F900F900F900F900F900F9000E010E073
:1013F0004C019924071588F46401C00ED11ECE0C4F
:10140000DF1CFE013197688180810E946209F6012C
:1014100080830F5F1F4F2296EDCF872D8A0DDF91BE
:10142000CF911F910F91FF90EF90DF90CF90BF90E1
:10143000AF909F908F907F900895CF92DF92FF9210
:101440000F931F93CF93DF93CDB7DEB70DB71EB7C2
:10145000262F30E0220F331FA9014F5F5F4FEDB7FA
:10146000FEB7E41BF50B0FB6F894FEBF0FBEEDBF41
:101470004DB75EB74F5F5F4FDA01F82E6C018C2DD0
:101480008F198617C8F4C601F601708172957F70B6
:1014900070637A3308F0795D7C93FFEFCF1ADF0A2F
:1014A000FC0180818F7080638A3308F0895D11961A
:1014B0008C9311971296E3CFFA01E20FF31F10827B
:1014C000BA018FEF93E00E9480120FB6F8941EBF0E
:1014D0000FBE0DBFDF91CF911F910F91FF90DF9055
:1014E000CF9008952F923F924F925F926F927F928A
:1014F0008F929F92AF92BF92CF92DF92EF92FF9224
:101500000F931F93CF93DF93CDB7DEB728970FB616
:10151000F894DEBF0FBECDBF3C01B62E4A01D22EDD
:101520001C830B830E94BC0E1B012C01970140E021
:1015300050E02D833E834F835887AA2051F061E10C
:1015400072E08FEF93E00E9473126D2DC4010E9430
:101550001D0AEC2C02E02D2DA4016B2DC3010E946D
:101560009002811116C00E94BC0E62197309840991
:1015700095092D813E814F815885261737074807E9
:101580005907D8F662E272E08FEF93E00E94801272
:1015900066C01091B003AA20C1F069E172E08FEF3C
:1015A00093E00E9473124AE050E0612F8FEF93E0C6
:1015B0000E94F8126EE172E08FEF93E00E947312C6
:1015C000612F82EB93E00E941D0A183060F282EBDB
:1015D00093E02091B203263431F62091B3032C34EA
:1015E00011F62091B403283509F0BDCF2091B50341
:1015F0002A3309F0B8CF612F70E0FB01E155FC4FB1
:1016000020812A3309F0AFCFFB01E055FC4F208148
:101610002F3409F0A8CFFB01EF54FC4F20812B346D
:1016200009F0A1CF1A8219829E012F5F3F4F3F938D
:101630002F932BEA31E03F932F939F938F930E9438
:10164000511581E00F900F900F900F900F900F9019
:1016500029813A814B815C812417350709F080E0AC
:1016600028960FB6F894DEBF0FBECDBFDF91CF91A5
:101670001F910F91FF90EF90DF90CF90BF90AF90B0
:101680009F908F907F906F905F904F903F902F90A2
:1016900008952F923F924F925F926F927F928F9216
:1016A0009F92AF92BF92CF92DF92EF92FF920F93F1
:1016B0001F93CF93DF93CDB7DEB7C65CD1090FB6CA
:1016C000F894DEBF0FBECDBFC454DF4F998388832B
:1016D000CC5BD040CF53DF4F6883C15CD040C8544F
:1016E000DF4F59834883C85BD040C254DF4F3983F2
:1016F0002883CE5BD040B02E0E94BC0E2B013C0153
:101700002091AF03C054DF4F2883C05CD040812CB0
:10171000912C1E0134E7230E311CC854DF4FA881E1
:10172000B981C85BD040CD01A0E0B0E0CE53DF4F1F
:1017300088839983AA83BB83C25CD04028EE33E0C0
:1017400043E76AE0CE0101960E94A108D82E282F17
:1017500030E0C654DF4F39832883CA5BD04026303F
:10176000310508F4FDC08981863409F0F9C08A8109
:101770008C3409F0F5C08B81883509F0F1C08C817B
:101780008A3309F0B4C0FE01359624E000E010E091
:101790008FEF820F919130ED390F3A3070F48AE07B
:1017A000A801849F8001859F100D11240053110909
:1017B000090F111D97FD1A9507C09A3329F424309B
:1017C00009F4E8C0282F06C081E0820F883011F0AC
:1017D000282FDECF81E0820FE1E0F0E0EC0FFD1F6B
:1017E000E80FF11D80818A3309F0D4C0CA53DF4F5E
:1017F0002883C65CD0400E94BC0E2B013C01CA531A
:10180000DF4F2881C65CD0402E5FE22EF12C6D2D7B
:10181000621B81E090E08C0F9D1F8E0D9F1D0E942A
:101820007409882309F45DC00815190509F05FC023
:1018300098E0E90EF11C9401482FB10181E090E09D
:101840008C0F9D1F8E0D9F1D0E94D409282FC454FC
:10185000DF4F68817981CC5BD040CE0183559F4FAB
:10186000CA53DF4F2883C65CD0400E947708AB2C58
:10187000C254DF4FC880D980CE5BD040C854DF4F00
:10188000E880F980C85BD0408401CA53DF4F2881CB
:10189000C65CD040A101C054DF4F6881C05CD0401D
:1018A000CE0183559F4F0E94720A882309F472C0AB
:1018B0009F928F92ABEAB1E0BF93AF933F922F928A
:1018C0000E942215B1018FEF93E00E9480123FEF3A
:1018D000831A930A0F900F900F900F900F900F9014
:1018E00006C06FE572E08FEF93E00E948012C6544D
:1018F000DF4F48815981CA5BD0404730510581F59F
:101900008C818F3369F58D81853451F58E818F34CB
:1019100039F58F81863421F5C454DF4F6881798190
:10192000CC5BD040CE0183559F4F0E947708EB2CB3
:10193000C254DF4F08811981CE5BD040C854DF4FBD
:1019400028813981C85BD04041E0CF53DF4F6881A7
:10195000C15CD040CE0183559F4F0E94C8081BC078
:101960000E94BC0E6419750986099709CE53DF4F92
:10197000288139814A815B81C25CD04026173707B4
:101980004807590708F0DACE67E672E08FEF93E078
:101990000E94731280E0CA53DF4F0FB6F894DEBF87
:1019A0000FBECDBFDF91CF911F910F91FF90EF90B0
:1019B000DF90CF90BF90AF909F908F907F906F906F
:1019C0005F904F903F902F900895CF92DF92EF92CB
:1019D000FF920F931F93CF93DF93CDB7DEB72D9771
:1019E0000FB6F894DEBF0FBECDBF7C01162F6A0183
:1019F0002C873D870E940D03AB01BC01405C5D4B11
:101A0000604F7F4FC7010E946B03B701CE01019663
:101A10000E9477082C853D85A601612FCE01019695
:101A20000E94490B182FC7010E940D03AB01BC0196
:101A3000405452446F407109C7010E946B03812FCB
:101A40002D960FB6F894DEBF0FBECDBFDF91CF91BC
:101A50001F910F91FF90EF90DF90CF9008956F92BC
:101A60007F928F929F92AF92BF92CF92DF92EF922E
:101A7000FF920F931F93CF93DF93CDB7DEB72B97D2
:101A80000FB6F894DEBF0FBECDBFFC014A01D22EC7
:101A900058013701643009F04BC08081863409F069
:101AA00047C081818C3409F043C08281883509F0B8
:101AB0003FC083818F33E1F5BA01CE0101960E94C8
:101AC0007708EC2C8301950140E06D2DCE01019645
:101AD0000E94C808882361F16EE972E08FEF93E0FD
:101AE0000E948012B401CE0101960E9477080C2D4D
:101AF0009301A5016D2DCE0101960E94E50C88236E
:101B000079F06FE972E08FEF93E00E948012CC20B1
:101B100089F066EA72E08FEF93E00E9480120AC0BB
:101B2000CC2031F065EC72E08FEF93E00E948012E0
:101B300080E001C081E02B960FB6F894DEBF0FBEA7
:101B4000CDBFDF91CF911F910F91FF90EF90DF906C
:101B5000CF90BF90AF909F908F907F906F9008959F
:101B6000833060F5E82FF0E0EE0FFF1FE051FC4FEF
:101B700071836083813051F08230A1F080916900DF
:101B80008C7F842B80936900E89A08958091690086
:101B9000440F551F440F551F837F842B809369008A
:101BA000E99A08958091690094E0440F551F9A9531
:101BB000E1F78F7C842B80936900EA9A08951F9245
:101BC0000F920FB60F9211240BB60F922F933F93E3
:101BD0004F935F936F937F938F939F93AF93BF9335
:101BE000EF93FF938091F0039091F103892B29F0FB
:101BF000E091F003F091F1030995FF91EF91BF910E
:101C0000AF919F918F917F916F915F914F913F9194
:101C10002F910F900BBE0F900FBE0F901F90189535
:101C20001F920F920FB60F9211240BB60F922F93A3
:101C30003F934F935F936F937F938F939F93AF9354
:101C4000BF93EF93FF938091F2039091F303892B5D
:101C500029F0E091F203F091F3030995FF91EF91E0
:101C6000BF91AF919F918F917F916F915F914F91B4
:101C70003F912F910F900BBE0F900FBE0F901F90B2
:101C800018951F920F920FB60F9211240BB60F9258
:101C90002F933F934F935F936F937F938F939F9374
:101CA000AF93BF93EF93FF938091F4039091F5036B
:101CB000892B29F0E091F403F091F5030995FF9148
:101CC000EF91BF91AF919F918F917F916F915F91B4
:101CD0004F913F912F910F900BBE0F900FBE0F9021
:101CE0001F9018951F920F920FB60F9211242F93E9
:101CF0003F938F939F93AF93BF938091F7039091FE
:101D0000F803A091F903B091FA033091F60323E0B0
:101D1000230F2D3720F40196A11DB11D05C026E823
:101D2000230F0296A11DB11D2093F6038093F703A4
:101D30009093F803A093F903B093FA038091FB0307
:101D40009091FC03A091FD03B091FE030196A11DAB
:101D5000B11D8093FB039093FC03A093FD03B0930C
:101D6000FE03BF91AF919F918F913F912F910F9063
:101D70000FBE0F901F9018952FB7F8946091F7033E
:101D80007091F8038091F9039091FA032FBF0895A1
:101D90003FB7F8948091FB039091FC03A091FD0361
:101DA000B091FE0326B5A89B05C02F3F19F0019600
:101DB000A11DB11D3FBF6627782F892F9A2F620F73
:101DC000711D811D911D42E0660F771F881F991FAD
:101DD0004A95D1F70895CF92DF92EF92FF92CF9379
:101DE000DF936B017C010E94C80EEB01C114D1048A
:101DF000E104F10489F00E9468130E94C80E6C1B74
:101E00007D0B683E734090F381E0C81AD108E10869
:101E1000F108C851DC4FEACFDF91CF91FF90EF90EE
:101E2000DF90CF900895789484B5826084BD84B5A6
:101E3000816084BD85B5826085BD85B5816085BDC5
:101E4000EEE6F0E0808181608083E1E8F0E01082DE
:101E5000808182608083808181608083E0E8F0E01F
:101E6000808181608083E1EBF0E080818460808309
:101E7000E0EBF0E0808181608083E1E9F0E0808147
:101E800082608083808181608083E0E9F0E08081EE
:101E900081608083EAE7F0E08081846080838081D4
:101EA000826080838081816080838081806880837C
:101EB0001092C100089590E0FC013197EA30F105DD
:101EC00040F5EA5BFF4F0C941015809180008F77EE
:101ED00003C0809180008F7D80938000089584B539
:101EE0008F7702C084B58F7D84BD08958091B00046
:101EF0008F7703C08091B0008F7D8093B0000895EC
:101F0000809190008F7703C0809190008F7D8093A7
:101F100090000895CF93DF9390E0FC01E054FF4FD1
:101F20002491FC01E052FF4F8491882349F190E015
:101F3000880F991FFC01EC5EFE4FA591B491865F5E
:101F40009E4FFC01C591D4919FB7611108C0F894D0
:101F50008C91209582238C93888182230AC06230E1
:101F600051F4F8948C91322F309583238C9388818F
:101F7000822B888304C0F8948C91822B8C939FBF12
:101F8000DF91CF9108950F931F93CF93DF931F920B
:101F9000CDB7DEB7282F30E0F901E056FF4F84912E
:101FA000F901E054FF4F1491F901E052FF4F049101
:101FB0000023C9F0882321F069830E945B0F6981A7
:101FC000E02FF0E0EE0FFF1FE65FFE4FA591B4910A
:101FD0009FB7F8948C91611103C01095812301C0C3
:101FE000812B8C939FBF0F90DF91CF911F910F9109
:101FF0000895CF93DF93282F30E0F901E056FF4F8B
:102000008491F901E054FF4FD491F901E052FF4F60
:10201000C491CC2391F081110E945B0FEC2FF0E072
:10202000EE0FFF1FE050FF4FA591B4912C912D238F
:1020300081E090E021F480E002C080E090E0DF9158
:10204000CF910895FC01818D228D90E0805C9F4F9F
:10205000821B91098F7399270895FC01918D828DC0
:10206000981731F0828DE80FF11D858D90E008956D
:102070008FEF9FEF0895FC01918D828D981761F08D
:10208000828DDF01A80FB11D5D968C91928D9F5FAF
:102090009F73928F90E008958FEF9FEF089588EDE2
:1020A00091E1892B41F080E090E0892B21F00E94A2
:1020B000D81181110DC080E090E0892B71F080E093
:1020C00090E0892B51F00E940000811104C0089516
:1020D0000E940000F0CF0C9400000895FC01848D54
:1020E000DF01A80FB11DA35ABF4F2C91848D90E042
:1020F00001968F739927848FA689B7892C93A0891D
:10210000B1898C9180648C93938D848D981306C0D3
:102110000288F389E02D80818F7D80830895CF939D
:10212000DF93EC01888D8823C9F0EA89FB898081DF
:1021300085FD05C0A889B9898C9186FD0FC00FB6B1
:1021400007FCF5CF808185FFF2CFA889B9898C91F2
:1021500085FFEDCFCE010E946E10E7CFDF91CF91CA
:102160000895CF92DF92FF920F931F93CF93DF9347
:102170001F92CDB7DEB76C0181E0D60158968C93E3
:1021800058975B969C915B975C968C915C979813A3
:1021900007C05096ED91FC915197808185FD2EC02E
:1021A000F601038D10E00F5F1F4F0F731127F02E04
:1021B000F601848DF81211C00FB607FCF9CFD601D5
:1021C0005096ED91FC915197808185FFF1CFC6012A
:1021D00069830E946E106981EBCF838DE80FF11D3A
:1021E000E35AFF4F6083D6015B960C935B97529640
:1021F000ED91FC915397808180620CC0D601569678
:10220000ED91FC91579760835096ED91FC91519719
:1022100080818064808381E090E00F90DF91CF9196
:102220001F910F91FF90DF90CF900895BF92CF92B2
:10223000DF92EF92FF92CF93DF93EC016A017B0173
:10224000B22EE889F98982E08083411581EE580732
:1022500061057105A1F060E079E08DE390E0A701F0
:1022600096010E94EE1421503109410951095695F9
:10227000479537952795211580E1380798F0E8892B
:10228000F989108260E874E88EE190E0A701960178
:102290000E94EE1421503109410951095695479584
:1022A00037952795EC85FD853083EE85FF85208366
:1022B000188EEC89FD89B082EA89FB898081806172
:1022C0008083EA89FB89808188608083EA89FB8931
:1022D000808180688083EA89FB8980818F7D80830B
:1022E000DF91CF91FF90EF90DF90CF90BF90089556
:1022F0001F920F920FB60F9211240BB60F922F93CD
:102300008F939F93EF93FF93E0910F04F09110044C
:102310008081E0911504F091160482FD12C0908135
:10232000809118048F5F8F7320911904821751F0E8
:10233000E0911804F0E0E150FC4F958F8093180471
:1023400001C08081FF91EF919F918F912F910F900C
:102350000BBE0F900FBE0F901F9018951F920F92FB
:102360000FB60F9211240BB60F922F933F934F93FA
:102370005F936F937F938F939F93AF93BF93EF93ED
:10238000FF938FEF93E00E946E10FF91EF91BF914A
:10239000AF919F918F917F916F915F914F913F91FD
:1023A0002F910F900BBE0F900FBE0F901F9018959E
:1023B0008FEF93E00E94221021E0892B09F420E0A6
:1023C000822F0895109202041092010488EE93E087
:1023D000A0E0B0E08093030490930404A09305046C
:1023E000B09306048EE393E0909300048093FF0380
:1023F00085EC90E090930C0480930B0484EC90E0C7
:1024000090930E0480930D0480EC90E09093100460
:1024100080930F0481EC90E0909312048093110458
:1024200082EC90E0909314048093130486EC90E087
:1024300090931604809315041092180410921904B6
:1024400010921A0410921B04089508950E94130F0D
:102450000E9425120E94C800CFE4D0E10E94FE0035
:102460002097E1F30E944F10F9CFCF92DF92EF92C5
:10247000FF920F931F93CF93DF936C017A01EB01CF
:10248000E60EF71E00E010E0CE15DF0561F0699161
:10249000D601ED91FC910190F081E02DC6010995E6
:1024A000080F191FF1CFC801DF91CF911F910F9134
:1024B000FF90EF90DF90CF9008956115710581F046
:1024C000DB010D900020E9F7AD0141505109461B99
:1024D000570BDC01ED91FC910280F381E02D099412
:1024E00080E090E008950C945D12DC01ED91FC9188
:1024F0000190F081E02D09946AE473E00C945D1280
:102500000F931F93CF93DF93EC010E945D128C0118
:10251000CE010E947C12800F911FDF91CF911F91FD
:102520000F9108958F929F92AF92BF92CF92DF92B8
:10253000EF92FF920F931F93CF93DF93CDB7DEB748
:10254000A1970FB6F894DEBF0FBECDBF7C01C42E9D
:10255000E52FCB01D22E19A221E02D1510F02AE093
:10256000D22E8E010F5D1F4F8D2C912CA12CB12CE2
:102570006C2D7E2FA50194010E94EE148C2DD29E0D
:1025800080191124015011098A3014F4805D01C0B2
:10259000895CF8018083211531054105510521F041
:1025A000C22EE32FCA01E4CFB801C7010E945D1219
:1025B000A1960FB6F894DEBF0FBECDBFDF91CF91CD
:1025C0001F910F91FF90EF90DF90CF90BF90AF9051
:1025D0009F908F9008952115310541F4DC01ED9114
:1025E000FC910190F081E02D642F09940C949212DB
:1025F0009A01462F50E060E070E00C94EB120F93CC
:102600001F93CF93DF93EC010E94BC0E68877987FC
:102610008A879B87E881F9810680F781E02DCE01CA
:10262000099597FF15C00E94BC0E088519852A855B
:102630003B85601B710B820B930B0C811D812E81DE
:102640003F81601771078207930720F38FEF9FEF99
:10265000DF91CF911F910F910895FC014483558321
:10266000668377830895AF92BF92CF92DF92EF9205
:10267000FF920F931F93CF93DF936C017901211584
:102680003105B9F08A01C0E0D0E0A62EBB24A7FC3A
:10269000B094C6010E94FF1297FD0EC08A159B05DB
:1026A00059F0F80181938F012196CE15DF0589F746
:1026B00003C080E090E001C0CE01DF91CF911F9177
:1026C0000F91FF90EF90DF90CF90BF90AF90089563
:1026D00008950CD0E6C0DED040F0D5D030F021F423
:1026E0005F3F19F0C7C0511110C1CAC0EBD098F3B9
:1026F0009923C9F35523B1F3951B550BBB27AA2783
:1027000062177307840738F09F5F5F4F220F331FF4
:10271000441FAA1FA9F333D00E2E3AF0E0E830D0C0
:1027200091505040E695001CCAF729D0FE2F27D0C3
:10273000660F771F881FBB1F261737074807AB0791
:10274000B0E809F0BB0B802DBF01FF2793585F4F06
:102750002AF09E3F510568F08DC0D7C05F3FECF373
:10276000983EDCF3869577956795B795F7959F5FCB
:10277000C9F7880F911D9695879597F90895E1E01F
:10278000660F771F881FBB1F621773078407BA077E
:1027900020F0621B730B840BBA0BEE1F88F7E095D9
:1027A000089598D088F09F5790F0B92F9927B75186
:1027B000A0F0D1F0660F771F881F991F1AF0BA9505
:1027C000C9F712C0B13081F09FD0B1E008959CC02C
:1027D000672F782F8827B85F39F0B93FCCF38695FB
:1027E00077956795B395D9F73EF490958095709558
:1027F00061957F4F8F4F9F4F0895E89409C097FBD5
:102800003EF490958095709561957F4F8F4F9F4FC7
:102810009923A9F0F92F96E9BB279395F69587950B
:1028200077956795B795F111F8CFFAF4BB0F11F4CE
:1028300060FF1BC06F5F7F4F8F4F9F4F16C0882375
:1028400011F096E911C0772321F09EE8872F762FAB
:1028500005C0662371F096E8862F70E060E02AF0EC
:102860009A95660F771F881FDAF7880F96958795D8
:1028700097F9089597F99F6780E870E060E0089500
:102880009FEF80EC089500240A9416161706180688
:102890000906089500240A94121613061406050664
:1028A0000895092E0394000C11F4882352F0BB0FF5
:1028B00040F4BF2B11F460FF04C06F5F7F4F8F4F58
:1028C0009F4F089557FD9058440F551F59F05F3F93
:1028D00071F04795880F97FB991F61F09F3F79F042
:1028E00087950895121613061406551FF2CF4695C4
:1028F000F1DF08C0161617061806991FF1CF869546
:102900007105610508940895E894BB276627772729
:10291000CB0197F908950BD0C4CFB5DF28F0BADF0B
:1029200018F0952309F0A6CFABCF1124EECFCADF64
:10293000A0F3959FD1F3950F50E0551F629FF001D2
:10294000729FBB27F00DB11D639FAA27F00DB11D2B
:10295000AA1F649F6627B00DA11D661F829F2227B4
:10296000B00DA11D621F739FB00DA11D621F839F3B
:10297000A00D611D221F749F3327A00D611D231F11
:10298000849F600D211D822F762F6A2F11249F575F
:1029900050408AF0E1F088234AF0EE0FFF1FBB1F82
:1029A000661F771F881F91505040A9F79E3F510521
:1029B00070F060CFAACF5F3FECF3983EDCF38695D2
:1029C00077956795B795F795E7959F5FC1F7FE2BCC
:1029D000880F911D9695879597F90895A1E21A2E73
:1029E000AA1BBB1BFD010DC0AA1FBB1FEE1FFF1FB3
:1029F000A217B307E407F50720F0A21BB30BE40B03
:102A0000F50B661F771F881F991F1A9469F7609549
:102A10007095809590959B01AC01BD01CF01089503
:102A2000EE0FFF1F0590F491E02D09940790F691A9
:102A3000E02D0994911126C5803219F089508550F6
:102A4000D0F708950F931F93CF93DF93CDB7DEB7E1
:102A50002E970FB6F894DEBF0FBECDBF0D891E892D
:102A600086E08C831A8309838FEF9FE79E838D8393
:102A7000AE01475E5F4F6F89788DCE0101960E944F
:102A80007315EF81F885E00FF11F10822E960FB6B7
:102A9000F894DEBF0FBECDBFDF91CF911F910F9194
:102AA0000895CF93DF93CDB7DEB72E970FB6F89486
:102AB000DEBF0FBECDBF85E08C838B899C899A8356
:102AC0008983AE01495E5F4F6D897E89CE01019693
:102AD0000E940B192E960FB6F894DEBF0FBECDBF25
:102AE000DF91CF9108952F923F924F925F926F9214
:102AF0007F928F929F92AF92BF92CF92DF92EF928E
:102B0000FF920F931F93CF93DF93CDB7DEB72C9730
:102B10000FB6F894DEBF0FBECDBF7C016B018A01FA
:102B2000FC0117821682838181FFBDC1CE0101960F
:102B30004C01F7019381F60193FD859193FF8191FB
:102B40006F01882309F4ABC1853239F493FD859177
:102B500093FF81916F01853229F4B70190E00E94C3
:102B6000A41AE7CF512C312C20E02032A0F48B3274
:102B700069F030F4803259F0833269F420612CC05E
:102B80008D3239F0803339F4216026C02260246010
:102B900023C0286021C027FD27C030ED380F3A3010
:102BA00078F426FF06C0FAE05F9E300D1124532E04
:102BB00013C08AE0389E300D1124332E20620CC0E1
:102BC0008E3221F426FD6BC1206406C08C3611F4D0
:102BD000206802C0883641F4F60193FD859193FF89
:102BE00081916F018111C1CF982F9F7D95549330B2
:102BF00028F40C5F1F4FFFE3F9830DC0833631F0DB
:102C0000833771F0833509F05BC022C0F801808101
:102C100089830E5F1F4F44244394512C540115C0E7
:102C20003801F2E06F0E711CF801A080B18026FF20
:102C300003C0652D70E002C06FEF7FEFC5012C87E8
:102C40000E945B1A2C0183012C852F77222E17C03E
:102C50003801F2E06F0E711CF801A080B18026FFF0
:102C600003C0652D70E002C06FEF7FEFC5012C87B8
:102C70000E94501A2C012C852068222E830123FCEF
:102C80001BC0832D90E048165906B0F4B70180E2CE
:102C900090E00E94A41A3A94F4CFF50127FC8591A4
:102CA00027FE81915F01B70190E00E94A41A3110C4
:102CB0003A94F1E04F1A51084114510471F7E5C0FC
:102CC000843611F0893639F5F80127FF07C0608195
:102CD0007181828193810C5F1F4F08C06081718177
:102CE000882777FD8095982F0E5F1F4F2F76B22E85
:102CF00097FF09C090958095709561957F4F8F4F94
:102D00009F4F2068B22E2AE030E0A4010E94EF1A03
:102D1000A82EA81844C0853729F42F7EB22E2AE0A9
:102D200030E025C0F22FF97FBF2E8F36C1F018F4A6
:102D3000883579F0B4C0803719F0883721F0AFC0FA
:102D40002F2F2061B22EB4FE0DC08B2D8460B82EC3
:102D500009C024FF0AC09F2F9660B92E06C028E044
:102D600030E005C020E130E002C020E132E0F801AF
:102D7000B7FE07C060817181828193810C5F1F4F14
:102D800006C06081718180E090E00E5F1F4FA4015A
:102D90000E94EF1AA82EA818FB2DFF77BF2EB6FEB3
:102DA0000BC02B2D2E7FA51450F4B4FE0AC0B2FC2C
:102DB00008C02B2D2E7E05C07A2C2B2D03C07A2C1B
:102DC00001C0752C24FF0DC0FE01EA0DF11D8081AC
:102DD000803311F4297E09C022FF06C073947394D6
:102DE00004C0822F867809F0739423FD13C020FF5E
:102DF00006C05A2C731418F4530C5718732C731400
:102E000068F4B70180E290E02C870E94A41A7394C2
:102E10002C85F5CF731410F4371801C0312C24FF22
:102E200012C0B70180E390E02C870E94A41A2C8581
:102E300022FF17C021FF03C088E590E002C088E7A9
:102E400090E0B7010CC0822F867859F021FD02C0B6
:102E500080E201C08BE227FD8DE2B70190E00E9485
:102E6000A41AA51438F4B70180E390E00E94A41AD4
:102E70005A94F7CFAA94F401EA0DF11D8081B701AD
:102E800090E00E94A41AA110F5CF332009F451CE8E
:102E9000B70180E290E00E94A41A3A94F6CFF701BD
:102EA0008681978102C08FEF9FEF2C960FB6F89422
:102EB000DEBF0FBECDBFDF91CF911F910F91FF906D
:102EC000EF90DF90CF90BF90AF909F908F907F90CA
:102ED0006F905F904F903F902F90089520FD09C014
:102EE000FC0123FD05C022FF02C07383628351836E
:102EF0004083089544FD10C046FD10C0DB01FC0175
:102F0000AA0FBB1FEE1FFF1F1094D1F76A0F7B1F84
:102F10008E1F9F1F31E003C033E001C034E0660F15
:102F2000771F881F991F3150D1F7620F711D811DC6
:102F3000911D08950F931F93CF93DF938C01C801C8
:102F40000E94661AEC0197FD08C00E941A15892B91
:102F5000B1F7B801CE010E94D61ACE01DF91CF9110
:102F60001F910F9108958F929F92AF92CF92DF920F
:102F7000EF92FF920F931F93CF93DF93EC01A62E56
:102F80004A01022F0E94661AAC0155274B325105A7
:102F900021F04D32510551F40068AA9411F480E0FB
:102FA00067C0CE010E94661A97FDF9CF102F1D7FD2
:102FB000302F307301F58033F1F4FF24FA94FA0CCA
:102FC00009F442C0CE010E94661A97FD3DC0382F19
:102FD0003F7D383551F41264AA94AA94A9F1CE0128
:102FE0000E94661A97FF07C02FC006FF02C012603A
:102FF00001C01261AF2CC12CD12C760120ED280F1D
:10300000283080F014FF04C0BE010E94D61A19C0F7
:103010002A3040F016FFF8CF2F7D3FEE320F3630CA
:1030200098F72750412FC701B6010E947A176B010C
:103030007C011260AA9459F0CE010E94661A97FF93
:10304000DDCF11FD04C0ABCFC12CD12C760117FF11
:1030500008C0F094E094D094C094C11CD11CE11C31
:10306000F11C212FB701A601C4010E946E1781E057
:10307000DF91CF911F910F91FF90EF90DF90CF9054
:10308000AF909F908F9008957F928F929F92AF9272
:10309000BF92CF92DF92EF92FF920F931F93CF9345
:1030A000DF93CDB7DEB7A1970FB6F894DEBF0FBEA2
:1030B000CDBF5C017A018E010F5F1F4F680180E276
:1030C000D8011D928A95E9F7F501738040E050E040
:1030D000812CB0E0912C81E090E0F90173FCA59186
:1030E00073FEA1918F017A2F9F01A11103C080E08F
:1030F00090E07DC0AE3519F44115510559F1E92D27
:10310000F0E0E417F5073CF4AD3569F1AD3219F4A0
:10311000BB2319F103C0B11101C08A2EE72FE69538
:10312000E695E69586010E0F111DF801A72FA770F1
:103130008C0102C0000F111FAA95E2F7D801B081DF
:10314000BA2BB083781559F0781510F47F5FE6CF6D
:103150007150E4CF9924939403C0B1E001C0B0E072
:103160004F5F5F4FBACFBB2319F08E8180628E8391
:10317000911003C09924939415C0F601CE01819655
:10318000208120952193E817F907D1F7F3CFE114B7
:10319000F10429F0D7018C93F70131967F0161503A
:1031A00001F1912CC50169A30E94661A69A197FDDE
:1031B00016C0282F269526952695F601E20FF11DBB
:1031C000208130E0AC014770552702C03595279526
:1031D0004A95E2F720FDDBCFB5010E94D61A911087
:1031E00086CFE114F10411F0D7011C92C801A19619
:1031F0000FB6F894DEBF0FBECDBFDF91CF911F9108
:103200000F91FF90EF90DF90CF90BF90AF909F9085
:103210008F907F9008954F925F927F928F929F92AE
:10322000AF92BF92CF92DF92EF92FF920F931F93D4
:10323000CF93DF931F92CDB7DEB78C012B017A01BC
:10324000FC0117821682A12CF801D380F201D3FC75
:103250008591D3FE8191382F2F01882309F4FCC07A
:1032600090E039830E941A153981892B21F0C80119
:103270000E949A17E9CF353241F4F201D3FC35911F
:10328000D3FE31912F01353269F4C80139830E9490
:10329000661A398197FDDEC03817B1F2B8010E9475
:1032A000D61ADAC03A3241F4D3FC3591D3FE3191CB
:1032B0002F01BB24B39401C0B12C712C20ED230F3E
:1032C0002A3090F4FB2DF260BF2E672D70E080E075
:1032D00090E040E20E947A17762EF201D3FC3591FD
:1032E000D3FE31912F01EACFB1FE03C0711003C0AC
:1032F000B3C077247A94383619F03C3661F014C0A4
:10330000F201D3FC3591D3FE31912F01383661F4AF
:10331000FB2DF860BF2E8B2D8460B82EF201D3FCFC
:103320003591D3FE31912F01332309F495C0632FDA
:1033300070E08EE191E039830E94451A3981892B32
:1033400009F48AC0B0FC07C0F701C080D180C70172
:1033500002967C0102C0C12CD12C3E3651F4F801FA
:103360004681578160E070E02B2DC6010E946E17E8
:103370006BCF3336A1F4B1FC02C077247394C8013B
:103380000E94661A97FD66C0C114D10429F0F601A7
:103390008083C60101966C017A9489F757C03B354A
:1033A00059F49201A601672DC8010E9444182C010E
:1033B000009709F04BC045C0C80139830E949A1795
:1033C000398197FD47C03F3669F128F4343631F131
:1033D000393679F12BC0333769F03537F9F026C02B
:1033E000C114D10429F0F6018082C60101966C0156
:1033F0007A9471F0C8010E94661A4C0197FD08C0CA
:103400000E941A15892B61F3B801C4010E94D61AD3
:10341000C114D104D9F0F601108218C0FB2DF0625E
:10342000BF2E07C08B2D8061B82E03C09B2D9064EA
:10343000B92E2B2DA601672DC8010E94B31781114B
:1034400005C0F8018381807329F406C0B0FCFCCE6E
:10345000A394FACEAA2019F08A2D90E002C08FEF33
:103460009FEF0F90DF91CF911F910F91FF90EF9001
:10347000DF90CF90BF90AF909F908F907F905F90A4
:103480004F900895992788270895FC010590061606
:1034900021F00020D9F7C00108953197CF01089598
:1034A000FC010590615070400110D8F7809590950F
:1034B0008E0F9F1F0895FC01615070400190011014
:1034C000D8F7809590958E0F9F1F0895CF93DF9327
:1034D000EC012B8120FF33C026FF0AC02F7B2B83FA
:1034E0008E819F8101969F838E838A8190E029C07F
:1034F00022FF0FC0E881F9818081992787FD90958F
:10350000009719F420622B831AC03196F983E8835F
:103510000EC0EA85FB85099597FF09C02B810196AE
:1035200011F480E101C080E2822B8B8308C02E81E0
:103530003F812F5F3F4F3F832E83992702C08FEF3C
:103540009FEFDF91CF9108950F931F93CF93DF9358
:10355000182F092FEB018B8181FD03C08FEF9FEFA7
:1035600020C082FF10C04E815F812C813D814217B7
:1035700053077CF4E881F9819F012F5F3F4F398326
:103580002883108306C0E885F985812F0995892B4A
:1035900029F72E813F812F5F3F4F3F832E83812F5D
:1035A000902FDF91CF911F910F910895FB012381FF
:1035B00020FF12C026FD10C08F3F3FEF930761F040
:1035C00082832F7D20642383268137812150310916
:1035D00037832683992708958FEF9FEF0895FA0187
:1035E000AA27283051F1203181F1E8946F936E7F42
:1035F0006E5F7F4F8F4F9F4FAF4FB1E03ED0B4E033
:103600003CD0670F781F891F9A1FA11D680F791F73
:103610008A1F911DA11D6A0F711D811D911DA11D84
:1036200020D009F468943F912AE0269F1124301994
:10363000305D3193DEF6CF010895462F4770405D2F
:103640004193B3E00FD0C9F7F6CF462F4F70405DDE
:103650004A3318F0495D31FD4052419302D0A9F739
:10366000EACFB4E0A6959795879577956795BA9533
:10367000C9F700976105710508959B01AC010A2EF9
:1036800006945795479537952795BA95C9F7620FD0
:0E369000731F841F951FA01D0895F894FFCF8F
:10369E0000009C04800073616D706C65456E6372F2
:1036AE007970744B65790053746172742077697206
:1036BE00656C65737320676174657761792E2E2E44
:1036CE0000544F3F00544F3A0053455249414C204D
:1036DE00494E203E2000202D2041434B2073656E25
:1036EE007400000000005A0790023402A707070872
:1036FE002A04A8060C024404C504BB0327081E02B4
:10370E005602464C583F454F4600464C583F0048DF
:10371E00616E647368616B65206661696C00464C0E
:10372E00583A25753A00464C58494D473A00726151
:10373E0064696F205B005D203E2000464C583A25A0
:10374E00753A4F4B00464C583F4F4B207265736590
:10375E006E6400494D472065786365656473203655
:10376E00346B2C207265667573696E672069740000
:10377E00464C583F4E4F4B00464C583F4F4B20281F
:10378E0041434B2073656E742900554E536869662C
:10379E0074696E67206368616E6E656C20746F204D
:1037AE000052465458203E2000524641434B203E84
:1037BE00200054696D656F75742077616974696E48
:1037CE006720666F72207061636B65742041434B96
:1037DE002C2061626F7274696E6720464C415348AB
:1037EE00206F7065726174696F6E202E2E2E0046EA
:1037FE004C583A494E560054696D656F7574207277
:10380E006563656976696E6720464C415348206949
:10381E006D6167652066726F6D2053455249414C4C
:10382E002C2061626F7274696E672E2E2E000A460E
:10383E004C583F4F4B00464C41534820494D472072
:10384E005452414E534D495353494F4E20535543B5
:10385E004345535300464C41534820494D4720544D
:10386E0052414E534D495353494F4E204641494CB8
:10387E00005245424F4F54494E4700464C41534823
:10388E0020494D47205452414E534D495353494FB1
:10389E004E2053554343455353210A0054696D65D9
:1038AE006F75742F4572726F722C20657261736919
:1038BE006E67207772697474656E2064617461201E
:1038CE002E2E2E2000444F4E450000000000B11059
:1038DE00351222103B102D108F100D0A006E616EE6
:0A38EE0000696E66006F7666000048
:00000001FF
