:100000000C9491000C947F0D0C94B00D0C94E10DA8
:100010000C94C0000C94C0000C94C0000C94C00060
:100020000C94C0000C94C0000C94C0000C94C00050
:100030000C94C0000C94C0000C94C0000C94C00040
:100040000C94C0000C94C0000C94120E0C94C000D0
:100050000C9435110C946B110C94C0000C94C000DE
:100060000C94C0000C94C0000C94C0000C94C00010
:100070000C94C0000C94C0000C94C0000C94C00000
:100080000C94C0000C94C0000C94C0002C0F2F0FD7
:10009000220F260F460F460F330F370F3D0F410F2C
:1000A000000000010200090A000000000403080724
:1000B0000000000000000000000000000000000040
:1000C0000102040810204080010204081020408032
:1000D0000102040810204080010204081020408022
:1000E00002020202020202020404040404040404E0
:1000F00003030303030303030101010101010101E0
:100100000000200023002600290000002200250016
:1001100028002B0000002100240027002A00E40111
:100120009F1111241FBECFEFD0E4DEBFCDBF13E07F
:10013000A0E0B1E0E4EBF2E300E00BBF02C0079007
:100140000D92AE36B107D9F724E0AEE6B3E001C0B8
:100150001D92A437B207E1F711E0C2E2D1E000E05E
:1001600006C022970109FE010BBF0E948416CE3102
:10017000D10780E00807A9F70E94E3110C945819F1
:100180000C94000061E08FE00E94470F61E081E085
:100190000E94470F26E040E052EC61E070E087EDFE
:1001A00093E00E94D31024E645E06BE583E793E0FB
:1001B0000E9432056BE071E083E793E00E94ED045A
:1001C0006CE171E087ED93E00E9430128EE693E0DF
:1001D0000E94B609882319F06AE271E002C06DE35B
:1001E00071E087ED93E00C943D12CF92DF92EF9295
:1001F000FF920F93CF93DF93CDB7DEB72B970FB658
:10020000F894DEBF0FBECDBF83E793E00E942B02C0
:10021000882309F46EC062E571E087ED93E00E94E7
:100220003012609187034AE050E087ED93E00E942E
:1002300007136AE387ED93E00E943212609188030E
:100240004AE050E087ED93E00E94071368E571E013
:1002500087ED93E00E943012F12C80918803F8160C
:1002600080F4EF2DF0E0E657FC4F6081772767FDC3
:10027000709540E150E087ED93E00E94F212F39414
:10028000ECCF87ED93E00E94391280E791E09A83EA
:100290008983809175038B83809176038C83809111
:1002A00077038D83809178038E83809179038F8388
:1002B00080917A03888780917B03898780917C0372
:1002C0008A8780917D038B878FE0E82E01E0209163
:1002D0006E0330916F0340917003509171036091F0
:1002E0007203CE0101960E94CC0C87ED93E00E9430
:1002F00039120E945C0EC0900601D0900701E09078
:100300000801F090090124EF31E040E050E00E9444
:100310003D16C901AA2797FDA095BA2FC816D90680
:10032000EA06FB06BCF4C701B6016F5F7F4F8F4F33
:100330009F4F60930601709307018093080190938B
:10034000090122E030E040E050E00E945F168FE0BB
:100350000E94800F8FE10E94FB0E6C016DE571E041
:1003600087ED93E00E943012EE24D7FCE094FE2C3F
:10037000C701B6010E942215AB01BC0122E030E0AA
:1003800087ED93E00E940B1461E081E00E94800FF2
:10039000C701B6010E948B0E60E081E00E94800FD1
:1003A00068EE73E080E090E00E948B0E2B960FB613
:1003B000F894DEBF0FBECDBFDF91CF910F91FF90BC
:1003C000EF90DF90CF90089580E791E090937403D1
:1003D0008093730384E08093750382E080937603B7
:1003E0008093770381E080938903109279038FE1F2
:1003F00080937A0310927B0340E35FEE67E18EE621
:1004000093E00C946E08089581E0809380038091BE
:100410007E0390917F03DC01ED91FC910484F585CE
:10042000E02D0995109280030895FC01F8948CB595
:1004300081878DB582878CB5837F8CBD8CB58F7D90
:100440008CBD8CB58C7F8CBD8DB58E7F8DBD60E0F5
:1004500082810C94800FF89420918903233021F439
:100460002091850321110FC020918903233011F4BD
:10047000789407C0DC01ED91FC910288F389E02DAE
:10048000099580E00895DC01ED91FC910488F589DF
:10049000E02D61E0099581E00895CF93DF93EC01B1
:1004A00061E08A810E94800F89858CBD8A858DBD1F
:1004B00080918003811101C07894DF91CF910895DC
:1004C0008EBD00000DB407FEFDCF8EB50895CF930D
:1004D000DF931F92CDB7DEB7DC01ED91FC91048074
:1004E000F581E02D698309956981882359F0809110
:1004F0008703861711F06F3F29F49091830381E001
:10050000911101C080E00F90DF91CF9108952F925B
:100510003F924F925F927F928F929F92AF92BF9243
:10052000CF92DF92EF92FF920F931F93CF93DF93BF
:10053000EC01962E5A01722E802E10E0CE2CD12C7A
:10054000E12CF12CE881F9810190F081E02D01E0AE
:10055000272DA501692DCE0109950E945C0E1B0176
:100560002C010E945C0E62197309840995096C15AF
:100570007D058E059F0540F4692DCE010E9467021E
:10058000882379F381E004C01F5F8116D8F680E0EC
:10059000DF91CF911F910F91FF90EF90DF90CF905F
:1005A000BF90AF909F908F907F905F904F903F90C3
:1005B0002F900895EF92FF921F93CF93DF931F9296
:1005C000CDB7DEB77C01DC01ED91FC91008CF18DA3
:1005D000E02D698309956981862F8F770E946002DB
:1005E00080E00E946002182FD701ED91FC91028CEF
:1005F000F38DE02DC7010995812F0F90DF91CF91E9
:100600001F91FF90EF9008950F931F93CF93DF9367
:10061000EC0167E00E94DA02082F68E0CE010E9438
:10062000DA02182F69E0CE010E94DA02402F50E072
:1006300060E070E0BA0155274427480F511D611D45
:10064000711D812F90E0982F8827480F591F611D39
:10065000711DCB01BA010E94201520E034E244E76D
:1006600052E40E94D6150E94F414DF91CF911F919D
:100670000F9108950F931F93CF93DF9300D0CDB7C1
:10068000DEB78C01DC01ED91FC91008CF18DE02D49
:100690004A83698309956981862F80680E94600278
:1006A0004A81842F0E946002D801ED91FC91028C56
:1006B000F38DE02DC8010F900F90DF91CF911F9126
:1006C0000F910994CF92DF92EF92FF921F93CF93F5
:1006D000DF93EC016A017B0110918903143039F436
:1006E000E881F9810488F589E02D63E00995C70167
:1006F000B6010E94201520E034E244E752E40E9453
:1007000087140E94F4146B017C01AC0166277727E3
:1007100067E0CE010E943A0377276F2D5E2D4D2DA5
:1007200068E0CE010E943A034C2D69E0CE010E94A0
:100730003A03133041F4E881F9810488F589E02D0A
:1007400062E0CE010995E881F9810488F589E02D00
:10075000612FCE01DF91CF911F91FF90EF90DF903D
:10076000CF9009941F93CF93DF93EC01162F8091C4
:100770008903681709F461C0623009F440C070F45D
:10078000662309F444C0613009F057C061E0CE012E
:100790000E94DA02482F437E44603FC06330C1F0BC
:1007A000643009F04AC061E0CE010E94DA02482FAD
:1007B000437E4C6061E0CE010E943A038885882325
:1007C00081F1E881F9810688F789E02D61E014C0A4
:1007D00061E0CE010E94DA02482F437E406161E071
:1007E000CE010E943A0388858823D9F0E881F981F7
:1007F0000688F789E02D60E0CE01099512C061E01E
:10080000CE010E94DA02482F437E486006C061E0B4
:10081000CE010E94DA02482F437E61E0CE010E94A1
:100820003A0380918903811106C067E2CE010E94DC
:10083000DA0287FFF6CF10938903DF91CF911F91E2
:100840000895CF93DF93EC01603208F06FE16F837E
:100850008885882311F066956F8361E1CE010E943F
:10086000DA02482F407E8F81482B61E1CE01DF9173
:10087000CF910C943A03CF92DF92EF92FF920F93B5
:100880001F93CF93DF93EC01F62ED42EC52E122F9B
:10089000E881F9810488F589E02D61E0099567E236
:1008A000CE010E94DA0287FFFACF40E065E2CE0176
:1008B0000E943A031E3308F01DE3E11004C0002338
:1008C00019F000E401C000E8E881F981008CF18DA5
:1008D000E02DCE01099580E80E94600283E0810F3F
:1008E0000E9460028F2D0E9460028D810E94600232
:1008F000802F0E9460020D2DED2CFC2C8E2D801B74
:10090000811730F4F70181917F010E946002F6CFD8
:10091000E881F981028CF38DE02DCE010995E88103
:10092000F9810488F589E02D64E0CE0109950E94E3
:100930005C0E6B017C018B810E94B60F892B81F0CC
:10094000E881F9810488F589E02D61E0CE01DF912D
:10095000CF911F910F91FF90EF90DF90CF9009946E
:100960000E945C0E6C197D098E099F09683E7340D8
:100970008105910528F7DFCFCF93DF93EC0110922B
:1009800088031092870310928603109285031092B9
:10099000840310928303109282031092810368E211
:1009A0000E94DA0282FF0AC06DE3CE010E94DA02E1
:1009B000482F44606DE3CE010E943A0340E465E2B3
:1009C000CE010E943A03E881F9810488F589E02D7F
:1009D00063E0CE01DF91CF910994DF92EF92FF9215
:1009E0000F931F93CF93DF93EC018B01E881F98183
:1009F0000488F589E02D61E0099501151105E1F004
:100A0000E881F981008CF18DE02DCE0109958EEB06
:100A10000E9460027801D12CF70181917F010E9430
:100A20006002D394F0E1DF12F7CFE881F981028C04
:100A3000F38DE02DCE0109956DE3CE010E94DA021F
:100A40008E7F91E0012B09F490E0482F492B6DE354
:100A5000CE01DF91CF911F910F91FF90EF90DF902A
:100A60000C943A038F929F92AF92BF92DF92EF92D3
:100A7000FF920F931F93CF93DF93CDB7DEB7AE975F
:100A80000FB6F894DEBF0FBECDBF7C01D42E8EE230
:100A90008E010F5F1F4FD801E82F1D92EA95E9F7ED
:100AA00091E0998334E03A8342E04B8393E09D8365
:100AB0004E833F8340E4488735E039879A8796E044
:100AC0009B8793E39C8737E03D8798E09F8799E079
:100AD000998B99E19B8B92E49C8B55E25D8B4E8BBD
:100AE00046E24F8B388F38E2398F30E13A8F39E266
:100AF0003B8F3CED3C8F8D8F88E88E8F8FE28F8F00
:100B00008DE288A380E389A337E33BA330E93CA3CC
:100B100038E33DA39EA39CE39FA39FE898A79DE392
:100B200099A792E19AA79FE69BA78CA78FEF8DA725
:100B30006F3131F06B3231F0663531F489ED05C03B
:100B40008EE403C08CE601C084EE8E876F3141F0E5
:100B50006B3221F0663521F480E003C080E401C0EF
:100B600080EC888B2AA361E0D70112968C910E94B9
:100B7000800F61E0F70182810E94470F0E943808D0
:100B80000E945C0E4B015C014AEA6FE2C7010E94C1
:100B90003A036FE2C7010E94DA028A3A59F00E94D2
:100BA0005C0E681979098A099B0962337105810510
:100BB000910550F30E945C0E4B015C0145E56FE22C
:100BC000C7010E943A036FE2C7010E94DA0285352D
:100BD00059F00E945C0E681979098A099B096233F1
:100BE00071058105910550F3B12CF801EB0DF11D54
:100BF000EB0DF11D60816F3F31F04181C7010E9413
:100C00003A03B394F2CF60E070E0C7010E94ED04B4
:100C1000D701ED91FC9111970084F185E02D189694
:100C20006C91C7010995D701ED91FC910488F58974
:100C3000E02D61E0C70109950E945C0E4B015C014B
:100C400067E2C7010E94DA0287FD0BC00E945C0EBA
:100C5000681979098A099B09623371058105910533
:100C600078F30E945C0E681979098A099B0962333E
:100C700071058105910598F41092800343E050E0DE
:100C800064E072E0F70184810E94500DF0927F03CE
:100C9000E0927E03D7011596DC9281E001C080E0EE
:100CA000AE960FB6F894DEBF0FBECDBFDF91CF91E9
:100CB0001F910F91FF90EF90DF90BF90AF909F90AA
:100CC0008F900895CF93DF93EC0161110DC064E222
:100CD000CE010E94DA0290E0919581959109959557
:100CE0008795DF91CF91089541E063E20E943A0336
:100CF00063E2CE010E94DA0281FFFACFE8CFCF9300
:100D0000DF93EC01809189038330A9F480918503FE
:100D1000811111C060E0CE010E946206863A9F4FA9
:100D200054F4E881F9810488F589E02D61E0CE0171
:100D3000099581E001C080E0DF91CF910895FF9295
:100D40000F931F93CF93DF93EC018091890383303E
:100D500001F568E2CE010E94DA0282FD28C019C0C6
:100D6000809188038D3330F4E0918803F0E0E657FA
:100D7000FC4F1082E881F981028CF38DE02DCE01C9
:100D80000995E881F9810488F589E02D63E0CE01B9
:100D9000099560E0CE010E946206909382038093E1
:100DA0008103DF91CF911F910F91FF900895E8810A
:100DB000F9810488F589E02D61E0CE010995E8818B
:100DC000F981008CF18DE02DCE01099580E00E9423
:100DD000600280E00E946002809385038091850319
:100DE0008334D0F4809185038093850380E00E9452
:100DF0006002809386038E81811109C090918603E1
:100E00008D81981721F0809186038F3F39F480916E
:100E10008503833018F017C082E4E6CF1092850373
:100E2000E881F981028CF38DE02DCE010995E881EE
:100E3000F9810288F389E02DCE01DF91CF911F91D6
:100E40000F91FF90099480918503835080938803CC
:100E500080E00E9460028093870380E00E9460022D
:100E6000982F907890938303982F90749093840395
:100E7000E881F9810684F785E02D682FCE01099578
:100E8000F12C80918803F81608F06ACF0F2D10E03E
:100E900080E00E946002F801E657FC4F8083F394E3
:100EA000F0CF4F925F926F927F929F92AF92BF92DC
:100EB000EF920F931F93CF93DF93EC01162F5A01FC
:100EC000922E6DE30E94DA02482F44606DE3CE015A
:100ED0000E943A030E945C0E2B013C01CE010E944D
:100EE0007F068823C1F0E881F9810088F189E02D2F
:100EF000E12C292DA501612FCE010995DF91CF911C
:100F00001F910F91EF90BF90AF909F907F906F9047
:100F10005F904F9008950E945C0E641975098609D0
:100F20009709683E734081059105E8F6E881F981EB
:100F30000480F581E02DCE010995D0CF4F925F92CC
:100F40006F927F929F92AF92BF92CF92DF92EF9279
:100F5000FF920F93CF93DF93EC015B01942E1092DD
:100F60008403F0908703C0908103D09082036DE3E7
:100F70000E94DA02482F44606DE3CE010E943A03DA
:100F80000E945C0E2B013C01CE010E947F0688234B
:100F900011F1F0928703E881F9810088F189E02D51
:100FA000EE24E39400E0292DA5016F2DCE010995D3
:100FB000D0928203C0928103DF91CF910F91FF9075
:100FC000EF90DF90CF90BF90AF909F907F906F9009
:100FD0005F904F9008950E945C0E64197509860910
:100FE0009709683E73408105910598F6E881F9817B
:100FF0000480F581E02DCE010995C6CFCF93DF9314
:10100000EC016887662311F04FE001C04AE163E11B
:10101000CE010E943A038885882341F061E1CE0128
:101020000E94DA02482F4F71406602C04F8140682B
:1010300061E1CE01DF91CF910C943A031F93CF93DE
:10104000DF93EC01162F662311F04DE501C045E555
:101050006AE5CE010E943A03112311F04CE701C06A
:1010600040E76CE5CE01DF91CF911F910C943A03DC
:10107000CF93CFB7F8948091C703811127C0E4EED6
:10108000F0E08491E4ECF0E09491E82FF0E0EE0FD2
:10109000FF1FEC5EFE4FA591B4918C91892321F442
:1010A00061E084E00E94800F61E084E00E94470FCD
:1010B0008CB580618CBD8CB580648CBD61E087E0AF
:1010C0000E94470F61E085E00E94470F8091C703AF
:1010D0008F5F8093C703CFBFCF910895FC016083DA
:1010E000528341830895CF93DF93EC01F8948CB53C
:1010F0008B838DB58C838CB5837F8CBD8CB58F7DB8
:101100008CBD8CB58C7F8CBD8DB58E7F8DBD0E94C6
:10111000380860E08881DF91CF910C94800FCF93E5
:10112000DF93EC0161E088810E94800F8B818CBD90
:101130008C818DBD7894DF91CF9108950F931F938B
:10114000CF93DF938C010E9473088FE90E946002A5
:1011500080E00E946002C82FD0E0DC2FCC2780E026
:101160000E946002C82BC8010E948F08CE01DF9147
:10117000CF911F910F9108951F93CF93DF93EC01AF
:101180000E94730885E00E94600280E00E94600275
:10119000182FCE010E948F08812FDF91CF911F91D0
:1011A00008950E94BC08817008951F93CF93DF9328
:1011B000EC01162F442339F040E066E00E94D50888
:1011C000CE010E948F08CE010E94D1088111FBCF71
:1011D000CE010E947308812FDF91CF911F910C9453
:1011E0006002EF92FF920F931F93CF93DF9300D093
:1011F000CDB7DEB77C01142F062F41E062E02A83D1
:1012000059830E94D508802F0E9460025981852F42
:101210000E946002812F0E9460022A81822F0E9418
:101220006002C7010F900F90DF91CF911F910F9136
:10123000FF90EF900C948F082F923F924F925F9205
:101240006F927F928F929F92AF92BF92CF92DF92D6
:10125000EF92FF920F931F93CF93DF935C016A018C
:101260007B011901CB01BA0120E031E040E050E000
:101270000E945F16C0E0D1E0C61BD70B812C912CD9
:101280000115110579F10C171D0708F4E80141E07B
:1012900062E0C5010E94D5088E2D0E9460028D2D4E
:1012A0000E9460028C2D0E9460022101480C591C92
:1012B0003201F30181913F010E946002C301841950
:1012C00095098C179D07A8F3C5010E948F08CC0EC5
:1012D000DD1EE11CF11C8C0E9D1E0C1B1D0BC0E0C5
:1012E000D1E0CECFDF91CF911F910F91FF90EF9082
:1012F000DF90CF90BF90AF909F908F907F906F9036
:101300005F904F903F902F900895EF92FF920F9330
:101310001F93CF93DF931F92CDB7DEB77C01142FBD
:10132000062F41E062E559830E94D508802F0E9474
:1013300060025981852F0E946002812F0E94600205
:10134000C7010F90DF91CF911F910F91FF90EF9008
:101350000C948F08CF93DF93EC0140E06BEA0E947E
:10136000D508CE01DF91CF910C948F08CF93DF93F6
:10137000EC018CB58B838DB58C8361E088810E94F4
:10138000470FCE010E948F08CE010E94AA098981D1
:101390009A81892B51F0CE010E949E0829813A81C1
:1013A0008217930711F080E00CC041E061E0CE01AC
:1013B0000E94D50880E00E946002CE010E948F0842
:1013C00081E0DF91CF910895FC01DB0180E791E09E
:1013D0009183808312968C911297828313968C91BD
:1013E0001397838314968C911497848315968C910C
:1013F0001597858316968C911697868317968C91F0
:101400001797878318968C911897808719968C91D7
:10141000199781871A968C9182870895CF92DF92CF
:10142000FF920F931F93CF93DF93CDB7DEB70DB726
:101430001EB7262F30E0220F331FA9014F5F5F4FE9
:10144000EDB7FEB7E41BF50B0FB6F894FEBF0FBE69
:10145000EDBF4DB75EB74F5F5F4FDA01F82E6C01FD
:101460008C2D8F198617C8F4C601F601708172950C
:101470007F7070637A3308F0795D7C93FFEFCF1A49
:10148000DF0AFC0180818F7080638A3308F0895DF8
:1014900011968C9311971296E3CFFA01E20FF31F86
:1014A0001082BA0187ED93E00E943D120FB6F894C6
:1014B0001EBF0FBE0DBFDF91CF911F910F91FF9007
:1014C000DF90CF9008952F923F924F925F926F924C
:1014D0007F928F929F92AF92BF92CF92DF92EF92C4
:1014E000FF920F931F93CF93DF93CDB7DEB76A9729
:1014F0000FB6F894DEBF0FBECDBF5C01698F098BBC
:101500001A8B2B8B3C8B4D8B2E2CC88E40E050E0E1
:10151000BA01CE0141960E94850907E010E020EB58
:1015200031E040E050E0BA01CE0141960E941C0932
:101530002AE349E050E060E070E0CE0141960E946D
:10154000F1080E945C0E2B013C015AE0E52EF12CC3
:10155000C12CD12CAE014F5F5F4F5F8B4E8BC5010D
:101560000E942B02882301F180918703598D8513F6
:101570001BC030908803B3E0B31520F480918A0338
:101580008634F9F061E0888D0E94470F61E0888D14
:101590000E94800F61E070E080E090E00E948B0E7E
:1015A00060E0888D0E94800F0E945C0E64197509AE
:1015B00086099709693B7B408105910580F280E0AF
:1015C00027C180918B038C34E9F680918C03883598
:1015D000C9F680918D038A3309F0A6C066E06315D1
:1015E00008F0A2C084E090E000E010E0282F9924E9
:1015F0009A94980EFC01E657FC4F3081303308F482
:10160000BEC030813A3308F0BAC030816AE0A80128
:10161000649F8001659F100D112400531109030F71
:10162000111D01968830910509F7922E2220C1F0F4
:1016300068EB71E087ED93E00E9430124AE050E0E1
:10164000632D87ED93E00E94071368E571E087ED55
:1016500093E00E943012632D8AE893E00E940E0A04
:10166000E1E0E90DF0E0E657FC4F80818A3309F0B4
:10167000A6CF0E945C0E2B013C010C151D0539F014
:10168000C60101970817190709F04EC029C032E0BA
:10169000390D68018FEFC81AD80A331508F5E32F02
:1016A000F0E0E657FC4F208147019FEF891A990A25
:1016B000A70160E070E0CE0141963A8F0E94F108E8
:1016C000C4019F773A8D892B41F4A40160E070E05A
:1016D000CE0141960E9485093A8D3F5F7401DDCFAE
:1016E0001F930F93A0ECB1E0BF93AF934F894F933B
:1016F0005E895F930E948816482F0F900F900F907D
:101700000F900F900F90222049F0BE016F5F7F4F26
:1017100087ED93E04A8F0E943D124A8DBE016F5FB4
:101720007F4FC5010E949E0780918D038F3309F082
:1017300029CF64E0361210C046E064EB72E0C501C8
:101740000E949E07222009F41DCF6AEC71E087ED0C
:1017500093E00E943D1216CF87E0381213CF80919C
:101760008E03853409F00ECF80918F038F3409F0FA
:1017700009CF80919003863409F004CF08C03081EE
:101780003A3309F04ECF243009F050CF18CF8701FB
:101790000A501109073F8FEF180778F0222031F027
:1017A00068ED71E087ED93E00E943D1247E065EF40
:1017B00071E0C5010E949E0702CF46E064EB72E033
:1017C000C5010E949E07222031F064EB72E087ED94
:1017D00093E00E943D12212F47E050E060E070E06E
:1017E000CE0141960E94F10826EF2E0D48E050E010
:1017F00060E070E0CE0141960E94F1082AE349E0E2
:1018000050E060E070E0CE0141960E94F10881E076
:101810006A960FB6F894DEBF0FBECDBFDF91CF91B1
:101820001F910F91FF90EF90DF90CF90BF90AF90FE
:101830009F908F907F906F905F904F903F902F90F0
:101840000895AF92BF92CF92DF92EF92FF920F93E3
:101850001F93CF93DF93CDB7DEB760970FB6F894A1
:10186000DEBF0FBECDBF5C01D62E0C871D872E8735
:101870003F87488BFE2C46E064EB72E00E949E0797
:10188000EE20D9F06DEF71E087ED93E00E943D12FC
:1018900061E172E087ED93E00E943012C5010E9481
:1018A0000403AB01BC01405C5D4B604F7F4F2AE0FD
:1018B00030E087ED93E00E940E13C5010E940403FF
:1018C000AB01BC01405C5D4B604F7F4FC5010E9486
:1018D0006203B501CE0101960E94E409EF2C0C854C
:1018E0001D852E853F8548896D2DCE0101960E946C
:1018F000630AD82EFF20A9F06FE072E087ED93E035
:101900000E943012C5010E940403AB01BC01405487
:1019100052446F4071092AE030E087ED93E00E9465
:101920000E13C5010E940403AB01BC014054524494
:101930006F407109C5010E9462038D2D60960FB63C
:10194000F894DEBF0FBECDBFDF91CF911F910F91F5
:10195000FF90EF90DF90CF90BF90AF900895C82F89
:10196000882331F066EF72E087ED93E00E94301239
:1019700088E028E130E00FB6F894A8952093600045
:101980000FBE80936000CC2331F06EE287ED93E0D0
:101990000E943212FACFFFCFCF92DF92EF92FF92E6
:1019A0000F931F93CF93DF93CDB7DEB760970FB63A
:1019B000F894DEBF0FBECDBF2C873D874E875F8773
:1019C000688BF02E20918803243008F45AC02091AF
:1019D0008A03263409F055C020918B032C3409F07A
:1019E00050C020918C03283509F04BC020918D0305
:1019F0002F3309F046C0D090870320918803273009
:101A0000A1F420918E03253481F420918F032F348B
:101A100061F420919003263441F400E026E044EB89
:101A200052E06D2D0E9451072CC0BC01CE010196E1
:101A30000E94E409CE2CEF2C0C851D852E853F8558
:101A400048896D2DCE0101960E94210C882359F002
:101A5000FF2031F060E073E087ED93E00E943012E8
:101A60008F2D0E94AF0CFF2061F061E273E087EDE3
:101A700093E00E9430126AE473E087ED93E00E94E5
:101A80003D1260960FB6F894DEBF0FBECDBFDF915A
:101A9000CF911F910F91FF90EF90DF90CF9008951D
:101AA000833060F5E82FF0E0EE0FFF1FE853FC4FA6
:101AB00071836083813051F08230A1F080916900A0
:101AC0008C7F842B80936900E89A08958091690047
:101AD000440F551F440F551F837F842B809369004B
:101AE000E99A08958091690094E0440F551F9A95F2
:101AF000E1F78F7C842B80936900EA9A08951F9206
:101B00000F920FB60F9211240BB60F922F933F93A3
:101B10004F935F936F937F938F939F93AF93BF93F5
:101B2000EF93FF938091C8039091C903892B29F00B
:101B3000E091C803F091C9030995FF91EF91BF911E
:101B4000AF919F918F917F916F915F914F913F9155
:101B50002F910F900BBE0F900FBE0F901F901895F6
:101B60001F920F920FB60F9211240BB60F922F9364
:101B70003F934F935F936F937F938F939F93AF9315
:101B8000BF93EF93FF938091CA039091CB03892B6E
:101B900029F0E091CA03F091CB030995FF91EF91F1
:101BA000BF91AF919F918F917F916F915F914F9175
:101BB0003F912F910F900BBE0F900FBE0F901F9073
:101BC00018951F920F920FB60F9211240BB60F9219
:101BD0002F933F934F935F936F937F938F939F9335
:101BE000AF93BF93EF93FF938091CC039091CD037C
:101BF000892B29F0E091CC03F091CD030995FF9159
:101C0000EF91BF91AF919F918F917F916F915F9174
:101C10004F913F912F910F900BBE0F900FBE0F90E1
:101C20001F9018951F920F920FB60F9211242F93A9
:101C30003F938F939F93AF93BF938091CF039091E6
:101C4000D003A091D103B091D2033091CE0323E011
:101C5000230F2D3720F40196A11DB11D05C026E8E4
:101C6000230F0296A11DB11D2093CE038093CF03B5
:101C70009093D003A093D103B093D2038091D30368
:101C80009091D403A091D503B091D6030196A11DE4
:101C9000B11D8093D3039093D403A093D503B09345
:101CA000D603BF91AF919F918F913F912F910F904C
:101CB0000FBE0F901F9018952FB7F8946091CF0327
:101CC0007091D0038091D1039091D2032FBF0895DA
:101CD0003FB7F8948091D3039091D403A091D5039A
:101CE000B091D60326B5A89B05C02F3F19F00196E9
:101CF000A11DB11D3FBF6627782F892F9A2F620F34
:101D0000711D811D911D42E0660F771F881F991F6D
:101D10004A95D1F70895CF92DF92EF92FF92CF9339
:101D2000DF936B017C010E94680EEB01C114D104AA
:101D3000E104F10489F00E941D140E94680E6C1BDE
:101D40007D0B683E734090F381E0C81AD108E1082A
:101D5000F108C851DC4FEACFDF91CF91FF90EF90AF
:101D6000DF90CF900895789484B5826084BD84B567
:101D7000816084BD85B5826085BD85B5816085BD86
:101D8000EEE6F0E0808181608083E1E8F0E010829F
:101D9000808182608083808181608083E0E8F0E0E0
:101DA000808181608083E1EBF0E0808184608083CA
:101DB000E0EBF0E0808181608083E1E9F0E0808108
:101DC00082608083808181608083E0E9F0E08081AF
:101DD00081608083EAE7F0E0808184608083808195
:101DE000826080838081816080838081806880833D
:101DF0001092C1000895883108F0885187702091B1
:101E00000A0190E4299F90011124822B80937C0089
:101E100080917A00806480937A0080917A0086FDB8
:101E2000FCCF809178002091790090E0922B08956A
:101E300090E0FC013197EA30F10540F5EA5BFF4F95
:101E40000C947E16809180008F7703C08091800073
:101E50008F7D80938000089584B58F7702C084B50C
:101E60008F7D84BD08958091B0008F7703C08091ED
:101E7000B0008F7D8093B0000895809190008F779F
:101E800003C0809190008F7D809390000895CF9340
:101E9000DF9390E0FC01E054FF4F2491FC01E052FD
:101EA000FF4F8491882349F190E0880F991FFC012E
:101EB000EC5EFE4FA591B491865F9E4FFC01C591EB
:101EC000D4919FB7611108C0F8948C91209582231A
:101ED0008C93888182230AC0623051F4F8948C91EB
:101EE000322F309583238C938881822B888304C082
:101EF000F8948C91822B8C939FBFDF91CF910895A2
:101F00000F931F93CF93DF931F92CDB7DEB7282F88
:101F100030E0F901E056FF4F8491F901E054FF4FA2
:101F20001491F901E052FF4F04910023C9F0882376
:101F300021F069830E94180F6981E02FF0E0EE0F15
:101F4000FF1FE65FFE4FA591B4919FB7F8948C9167
:101F5000611103C01095812301C0812B8C939FBF19
:101F60000F90DF91CF911F910F910895CF93DF9341
:101F7000282F30E0F901E056FF4F8491F901E05439
:101F8000FF4FD491F901E052FF4FC491CC2391F05F
:101F900081110E94180FEC2FF0E0EE0FFF1FE050B0
:101FA000FF4FA591B4912C912D2381E090E021F475
:101FB00080E002C080E090E0DF91CF910895FC01C5
:101FC000818D228D90E0805C9F4F821B91098F73E1
:101FD00099270895FC01918D828D981731F0828D9B
:101FE000E80FF11D858D90E008958FEF9FEF089524
:101FF000FC01918D828D981761F0828DDF01A80F11
:10200000B11D5D968C91928D9F5F9F73928F90E032
:1020100008958FEF9FEF089585E991E1892B41F0B5
:1020200080E090E0892B21F00E94951181110DC074
:1020300080E090E0892B71F080E090E0892B51F0F6
:102040000E940000811104C008950E940000F0CF9A
:102050000C9400000895FC01848DDF01A80FB11DD0
:10206000A35ABF4F2C91848D90E001968F739927CE
:10207000848FA689B7892C93A089B1898C918064BB
:102080008C93938D848D981306C00288F389E02D7C
:1020900080818F7D80830895CF93DF93EC01888DBD
:1020A0008823C9F0EA89FB89808185FD05C0A8895C
:1020B000B9898C9186FD0FC00FB607FCF5CF8081E2
:1020C00085FFF2CFA889B9898C9185FFEDCFCE012C
:1020D0000E942B10E7CFDF91CF910895CF92DF922E
:1020E000FF920F931F93CF93DF931F92CDB7DEB76D
:1020F0006C0181E0D60158968C9358975B969C9121
:102100005B975C968C915C97981307C05096ED9105
:10211000FC915197808185FD2EC0F601038D10E062
:102120000F5F1F4F0F731127F02EF601848DF812E9
:1021300011C00FB607FCF9CFD6015096ED91FC9176
:102140005197808185FFF1CFC60169830E942B10D2
:102150006981EBCF838DE80FF11DE35AFF4F608358
:10216000D6015B960C935B975296ED91FC91539739
:10217000808180620CC0D6015696ED91FC915797F4
:1021800060835096ED91FC915197808180648083AB
:1021900081E090E00F90DF91CF911F910F91FF9020
:1021A000DF90CF900895BF92CF92DF92EF92FF928F
:1021B000CF93DF93EC016A017B01B22EE889F989A4
:1021C00082E08083411581EE580761057105A1F019
:1021D00060E079E08DE390E0A70196010E943D1652
:1021E0002150310941095109569547953795279551
:1021F000211580E1380798F0E889F989108260E8B4
:1022000074E88EE190E0A70196010E943D162150EE
:102210003109410951095695479537952795EC8520
:10222000FD853083EE85FF852083188EEC89FD893E
:10223000B082EA89FB89808180618083EA89FB8999
:10224000808188608083EA89FB89808180688083BF
:10225000EA89FB8980818F7D8083DF91CF91FF9018
:10226000EF90DF90CF90BF9008951F920F920FB61E
:102270000F9211240BB60F922F938F939F93EF938E
:10228000FF93E091E703F091E8038081E091ED0393
:10229000F091EE0382FD12C090818091F0038F5F78
:1022A0008F732091F103821751F0E091F003F0E079
:1022B000E952FC4F958F8093F00301C08081FF911C
:1022C000EF919F918F912F910F900BBE0F900FBEAA
:1022D0000F901F9018951F920F920FB60F92112416
:1022E0000BB60F922F933F934F935F936F937F9310
:1022F0008F939F93AF93BF93EF93FF9387ED93E0FB
:102300000E942B10FF91EF91BF91AF919F918F9100
:102310007F916F915F914F913F912F910F900BBEE5
:102320000F900FBE0F901F90189587ED93E00E94BD
:10233000DF0F21E0892B09F420E0822F089510920D
:10234000DA031092D90388EE93E0A0E0B0E0809326
:10235000DB039093DC03A093DD03B093DE0383E5FE
:1023600093E09093D8038093D70385EC90E090930B
:10237000E4038093E30384EC90E09093E60380937E
:10238000E50380EC90E09093E8038093E70381EC11
:1023900090E09093EA038093E90382EC90E09093BD
:1023A000EC038093EB0386EC90E09093EE03809334
:1023B000ED031092F0031092F1031092F2031092C9
:1023C000F303089508950E94B30E0E94E2110E9443
:1023D000C200CCE0D0E10E94F5002097E1F30E941A
:1023E0000C10F9CFCF92DF92EF92FF920F931F93D1
:1023F000CF93DF936C017A01EB01E60EF71E00E04C
:1024000010E0CE15DF0561F06991D601ED91FC91E8
:102410000190F081E02DC6010995080F191FF1CF39
:10242000C801DF91CF911F910F91FF90EF90DF9046
:10243000CF9008956115710581F0DB010D900020AA
:10244000E9F7AD0141505109461B570BDC01ED91F5
:10245000FC910280F381E02D099480E090E00895E2
:102460000C941A12DC01ED91FC910190F081E02DA9
:1024700009946FE573E00C941A120F931F93CF9396
:10248000DF93EC010E941A128C01CE010E943912D6
:10249000800F911FDF91CF911F910F9108958F921F
:1024A0009F92AF92BF92CF92DF92EF92FF920F93E3
:1024B0001F93CF93DF93CDB7DEB7A1970FB6F894F4
:1024C000DEBF0FBECDBF7C01C42EE52FCB01D22EC7
:1024D00019A221E02D1510F02AE0D22E8E010F5DF9
:1024E0001F4F8D2C912CA12CB12C6C2D7E2FA50172
:1024F00094010E943D168C2DD29E8019112401500A
:1025000011098A3014F4805D01C0895CF801808370
:10251000211531054105510521F0C22EE32FCA01D5
:10252000E4CFB801C7010E941A12A1960FB6F89421
:10253000DEBF0FBECDBFDF91CF911F910F91FF90F6
:10254000EF90DF90CF90BF90AF909F908F900895C5
:10255000CF92DF92EF92FF920F931F93CF93DF936F
:10256000EC016A017B012115310579F4E881F981DB
:102570000190F081E02D642FDF91CF911F910F9199
:10258000FF90EF90DF90CF9009942A303105E9F465
:1025900077FF1AC06DE20E9432128C014427552742
:1025A000BA014C195D096E097F092AE0CE010E942B
:1025B0004F12800F911FDF91CF911F910F91FF90CC
:1025C000EF90DF90CF9008952AE0B701A601CE01E9
:1025D000DF91CF911F910F91FF90EF90DF90CF90FF
:1025E0000C944F129A01AB01662757FD6095762F28
:1025F0000C94A8122115310541F4DC01ED91FC91F8
:102600000190F081E02D642F09940C944F129A01EF
:10261000462F50E060E070E00C94FA120F931F9385
:10262000CF93DF93EC010E94FA128C01CE010E943D
:102630003912800F911FDF91CF911F910F91089553
:102640004F925F926F927F928F929F92AF92BF92C2
:10265000CF92DF92EF92FF920F931F93CF93DF936E
:10266000EC016A017B01B22E9A01AB01C701B601F0
:102670000E943916882319F062E673E027C026010C
:102680003701E89477F82FEF3FEF4FE75FE7C3019B
:10269000B2010E94391681110DC02FEF3FEF4FE7B5
:1026A0005FE7C301B2010E94831418161CF466E6AA
:1026B00073E00CC02FEF3FEF4FE75FE4C701B601B7
:1026C0000E94D2151816ACF46AE673E0CE01DF91D1
:1026D000CF911F910F91FF90EF90DF90CF90BF901F
:1026E000AF909F908F907F906F905F904F900C94E1
:1026F0001A122FEF3FEF4FE75FECC701B6010E94C0
:10270000831487FDE1CF20E030E0A901C701B601C5
:102710000E94831487FF0AC06DE2CE010E9432122C
:102720008C01F7FAF094F7F8F09402C000E010E0A2
:10273000A12C60E070E080E09FE3AB1441F020E06A
:1027400030E040E251E40E948714A394F6CF9B014D
:10275000AC01C701B6010E941F146B017C010E94ED
:10276000F4142B013C010E9420159B01AC01C70110
:10277000B6010E941E146B017C012AE0B301A20184
:10278000CE010E944F12080F191FBB2039F062E7DB
:1027900072E0CE010E941A12080F191F7B2C7720BD
:1027A00041F120E030E040E251E4C701B6010E946F
:1027B000D6156B017C010E94EF144B01AA2497FCF3
:1027C000A094BA2C2AE030E0B501A401CE010E9409
:1027D000A812080F191FC501B4010E9422159B0100
:1027E000AC01C701B6010E941E146B017C017A94F2
:1027F000D6CFC801DF91CF911F910F91FF90EF903D
:10280000DF90CF90BF90AF909F908F907F906F9010
:102810005F904F9008950F931F93CF93DF93EC0138
:102820000E9420138C01CE010E943912800F911F4B
:10283000DF91CF911F910F91089508955058BB27B4
:10284000AA270ED075C166D130F06BD120F031F4DB
:102850009F3F11F41EF45BC10EF4E095E7FB51C1FC
:10286000E92F77D180F3BA176207730784079507BA
:1028700018F071F49EF58FC10EF4E0950B2EBA2F6F
:10288000A02D0B01B90190010C01CA01A001112476
:10289000FF27591B99F0593F50F4503E68F11A1622
:1028A000F040A22F232F342F4427585FF3CF4695B3
:1028B00037952795A795F0405395C9F77EF41F16D5
:1028C000BA0B620B730B840BBAF09150A1F0FF0F9F
:1028D000BB1F661F771F881FC2F70EC0BA0F621F8B
:1028E000731F841F48F4879577956795B795F7957B
:1028F0009E3F08F0B3CF9395880F08F09927EE0F0D
:10290000979587950895D9D008F481E008950CD063
:102910000FC107D140F0FED030F021F45F3F19F035
:10292000F0C0511139C1F3C014D198F39923C9F300
:102930005523B1F3951B550BBB27AA2762177307C5
:10294000840738F09F5F5F4F220F331F441FAA1F79
:10295000A9F333D00E2E3AF0E0E830D09150504039
:10296000E695001CCAF729D0FE2F27D0660F771FE7
:10297000881FBB1F261737074807AB07B0E809F0C9
:10298000BB0B802DBF01FF2793585F4F2AF09E3F5E
:10299000510568F0B6C000C15F3FECF3983EDCF330
:1029A000869577956795B795F7959F5FC9F7880FD7
:1029B000911D9695879597F90895E1E0660F771F29
:1029C000881FBB1F621773078407BA0720F0621BBA
:1029D000730B840BBA0BEE1F88F7E095089504D0B3
:1029E0006894B111D9C00895BCD088F09F5790F079
:1029F000B92F9927B751A0F0D1F0660F771F881F24
:102A0000991F1AF0BA95C9F712C0B13081F0C3D03E
:102A1000B1E00895C0C0672F782F8827B85F39F0DC
:102A2000B93FCCF3869577956795B395D9F73EF482
:102A300090958095709561957F4F8F4F9F4F08952A
:102A4000E89409C097FB3EF4909580957095619548
:102A50007F4F8F4F9F4F9923A9F0F92F96E9BB27FE
:102A60009395F695879577956795B795F111F8CF7A
:102A7000FAF4BB0F11F460FF1BC06F5F7F4F8F4FE5
:102A80009F4F16C0882311F096E911C0772321F0DB
:102A90009EE8872F762F05C0662371F096E8862F73
:102AA00070E060E02AF09A95660F771F881FDAF7CA
:102AB000880F9695879597F90895990F0008550FF7
:102AC000AA0BE0E8FEEF16161706E807F907C0F0B4
:102AD00012161306E407F50798F0621B730B840BBC
:102AE000950B39F40A2661F0232B242B252B21F496
:102AF00008950A2609F4A140A6958FEF811D811D36
:102B0000089597F99F6780E870E060E008959FEF6F
:102B100080EC089500240A94161617061806090674
:102B2000089500240A941216130614060506089543
:102B3000092E0394000C11F4882352F0BB0F40F4CB
:102B4000BF2B11F460FF04C06F5F7F4F8F4F9F4F0B
:102B5000089557FD9058440F551F59F05F3F71F08D
:102B60004795880F97FB991F61F09F3F79F08795F4
:102B70000895121613061406551FF2CF4695F1DF7D
:102B800008C0161617061806991FF1CF869571050D
:102B9000610508940895E894BB2766277727CB0141
:102BA00097F908958ADF08F48FEF08950BD0C0CF0E
:102BB000B1DF28F0B6DF18F0952309F0A2CFA7CF38
:102BC0001124EACFC6DFA0F3959FD1F3950F50E013
:102BD000551F629FF001729FBB27F00DB11D639FCF
:102BE000AA27F00DB11DAA1F649F6627B00DA11D75
:102BF000661F829F2227B00DA11D621F739FB00D1B
:102C0000A11D621F839FA00D611D221F749F33278A
:102C1000A00D611D231F849F600D211D822F762F23
:102C20006A2F11249F5750408AF0E1F088234AF020
:102C3000EE0FFF1FBB1F661F771F881F915050406C
:102C4000A9F79E3F510570F05CCFA6CF5F3FECF334
:102C5000983EDCF3869577956795B795F795E79558
:102C60009F5FC1F7FE2B880F911D9695879597F969
:102C7000089523DF880B990B0895A1E21A2EAA1B51
:102C8000BB1BFD010DC0AA1FBB1FEE1FFF1FA2171C
:102C9000B307E407F50720F0A21BB30BE40BF50B19
:102CA000661F771F881F991F1A9469F760957095A2
:102CB000809590959B01AC01BD01CF010895052E33
:102CC00097FB1EF400940E94761657FD07D00E94D1
:102CD0003D1607FC03D04EF40C94761650954095A3
:102CE000309521953F4F4F4F5F4F089590958095B8
:102CF000709561957F4F8F4F9F4F0895EE0FFF1F87
:102D00000590F491E02D09940790F691E02D099437
:102D10000F931F93CF93DF93CDB7DEB72E970FB6E8
:102D2000F894DEBF0FBECDBF0D891E8986E08C836F
:102D30001A8309838FEF9FE79E838D83AE01475EE1
:102D40005F4F6F89788DCE0101960E94B716EF8193
:102D5000F885E00FF11F10822E960FB6F894DEBFB3
:102D60000FBECDBFDF91CF911F910F9108952F928C
:102D70003F924F925F926F927F928F929F92AF920B
:102D8000BF92CF92DF92EF92FF920F931F93CF9358
:102D9000DF93CDB7DEB72C970FB6F894DEBF0FBE2A
:102DA000CDBF7C016B018A01FC01178216828381F1
:102DB00081FFBDC1CE0101964C01F7019381F6015F
:102DC00093FD859193FF81916F01882309F4ABC135
:102DD000853239F493FD859193FF81916F0185329E
:102DE00029F4B70190E00E94C818E7CF512C312C8C
:102DF00020E02032A0F48B3269F030F4803259F0B8
:102E0000833269F420612CC08D3239F0803339F47B
:102E1000216026C02260246023C0286021C027FDD5
:102E200027C030ED380F3A3078F426FF06C0FAE0BC
:102E30005F9E300D1124532E13C08AE0389E300D52
:102E40001124332E20620CC08E3221F426FD6BC17A
:102E5000206406C08C3611F4206802C0883641F424
:102E6000F60193FD859193FF81916F018111C1CF8F
:102E7000982F9F7D9554933028F40C5F1F4FFFE3EC
:102E8000F9830DC0833631F0833771F0833509F053
:102E90005BC022C0F801808189830E5F1F4F4424EC
:102EA0004394512C540115C03801F2E06F0E711C8F
:102EB000F801A080B18026FF03C0652D70E002C03C
:102EC0006FEF7FEFC5012C870E94BD182C01830195
:102ED0002C852F77222E17C03801F2E06F0E711C5F
:102EE000F801A080B18026FF03C0652D70E002C00C
:102EF0006FEF7FEFC5012C870E94B2182C012C8543
:102F00002068222E830123FC1BC0832D90E04816ED
:102F10005906B0F4B70180E290E00E94C8183A94D4
:102F2000F4CFF50127FC859127FE81915F01B70160
:102F300090E00E94C81831103A94F1E04F1A5108FD
:102F40004114510471F7E5C0843611F0893639F522
:102F5000F80127FF07C060817181828193810C5F36
:102F60001F4F08C060817181882777FD8095982F59
:102F70000E5F1F4F2F76B22E97FF09C09095809558
:102F8000709561957F4F8F4F9F4F2068B22E2AE03A
:102F900030E0A4010E94FA18A82EA81844C0853772
:102FA00029F42F7EB22E2AE030E025C0F22FF97FDF
:102FB000BF2E8F36C1F018F4883579F0B4C0803751
:102FC00019F0883721F0AFC02F2F2061B22EB4FE48
:102FD0000DC08B2D8460B82E09C024FF0AC09F2F1E
:102FE0009660B92E06C028E030E005C020E130E050
:102FF00002C020E132E0F801B7FE07C060817181B4
:10300000828193810C5F1F4F06C06081718180E0D7
:1030100090E00E5F1F4FA4010E94FA18A82EA81876
:10302000FB2DFF77BF2EB6FE0BC02B2D2E7FA514D8
:1030300050F4B4FE0AC0B2FC08C02B2D2E7E05C091
:103040007A2C2B2D03C07A2C01C0752C24FF0DC0C7
:10305000FE01EA0DF11D8081803311F4297E09C043
:1030600022FF06C07394739404C0822F867809F0FF
:10307000739423FD13C020FF06C05A2C731418F458
:10308000530C5718732C731468F4B70180E290E066
:103090002C870E94C81873942C85F5CF731410F4F4
:1030A000371801C0312C24FF12C0B70180E390E033
:1030B0002C870E94C8182C8522FF17C021FF03C04F
:1030C00088E590E002C088E790E0B7010CC0822F4D
:1030D000867859F021FD02C080E201C08BE227FD15
:1030E0008DE2B70190E00E94C818A51438F4B7012A
:1030F00080E390E00E94C8185A94F7CFAA94F40194
:10310000EA0DF11D8081B70190E00E94C818A1105E
:10311000F5CF332009F451CEB70180E290E00E9450
:10312000C8183A94F6CFF7018681978102C08FEFD5
:103130009FEF2C960FB6F894DEBF0FBECDBFDF9188
:10314000CF911F910F91FF90EF90DF90CF90BF90A4
:10315000AF909F908F907F906F905F904F903F9037
:103160002F900895FC010590615070400110D8F730
:10317000809590958E0F9F1F0895FC0161507040BF
:1031800001900110D8F7809590958E0F9F1F08959C
:103190000F931F93CF93DF93182F092FEB018B8190
:1031A00081FD03C08FEF9FEF20C082FF10C04E81D2
:1031B0005F812C813D81421753077CF4E881F981BE
:1031C0009F012F5F3F4F39832883108306C0E88516
:1031D000F985812F0995892B29F72E813F812F5F52
:1031E0003F4F3F832E83812F902FDF91CF911F91EF
:1031F0000F910895FA01AA27283051F1203181F169
:10320000E8946F936E7F6E5F7F4F8F4F9F4FAF4FEE
:10321000B1E03ED0B4E03CD0670F781F891F9A1F01
:10322000A11D680F791F8A1F911DA11D6A0F711DB5
:10323000811D911DA11D20D009F468943F912AE0C1
:10324000269F11243019305D3193DEF6CF010895A9
:10325000462F4770405D4193B3E00FD0C9F7F6CFDA
:10326000462F4F70405D4A3318F0495D31FD4052A2
:10327000419302D0A9F7EACFB4E0A6959795879538
:1032800077956795BA95C9F7009761057105089517
:103290009B01AC010A2E06945795479537952795C3
:1032A000BA95C9F7620F731F841F951FA01D08955B
:0432B000F894FFCFC0
:1032B400000074048000FFFFFFFF0173616D706CF8
:1032C40065456E63727970744B65790053746172ED
:1032D40074206E6F64652E2E2E0053504920466C68
:1032E40061736820496E6974204F4B210053504923
:1032F40020466C61736820496E6974204641494CCC
:103304002100476F74205B005D203E200053656EF2
:10331400736F722056616C75653A200000000000DE
:10332400510787022B029E07FE0721049F06030212
:103334003B04BC04B2031E0815024D02464C583F20
:10334400454F4600464C583F0048616E64736861BF
:103354006B65206661696C00464C583A25753A00E5
:10336400464C58494D473A00726164696F205B00CE
:10337400464C583A25753A4F4B00464C583F4F4BF4
:1033840020726573656E6400494D472065786365F6
:103394006564732036346B2C207265667573696EB0
:1033A4006720697400464C583F4E4F4B00464C58BA
:1033B4003F4F4B202841434B2073656E74290055C1
:1033C4004E5368696674696E67206368616E6E65E2
:1033D4006C20746F200052465458203E2000524600
:1033E40041434B203E200054696D656F757420770E
:1033F400616974696E6720666F72207061636B65C2
:10340400742041434B2C2061626F7274696E672093
:10341400464C415348206F7065726174696F6E2029
:103424002E2E2E00464C583A494E560054696D656E
:103434006F757420726563656976696E6720464CA2
:1034440041534820696D6167652066726F6D205332
:10345400455249414C2C2061626F7274696E672E2B
:103464002E2E000A464C583F4F4B00464C415348C1
:1034740020494D47205452414E534D495353494FCF
:103484004E205355434345535300464C4153482023
:10349400494D47205452414E534D495353494F4E81
:1034A400204641494C005245424F4F54494E470033
:1034B400464C41534820494D47205452414E534DA8
:1034C400495353494F4E2053554343455353210ABF
:1034D4000054696D656F75742F4572726F722C207C
:1034E40065726173696E67207772697474656E20A2
:1034F40064617461202E2E2E2000444F4E4500003E
:103504000000006E10F211DF0FF80FEA0F4C100DDF
:0E3514000A006E616E00696E66006F766600DA
:00000001FF
